{
  "contractName": "Pluvo",
  "abi": [
    {
      "constant": true,
      "inputs": [],
      "name": "numberOfRainees",
      "outputs": [
        {
          "name": "",
          "type": "uint256"
        }
      ],
      "payable": false,
      "stateMutability": "view",
      "type": "function"
    },
    {
      "constant": true,
      "inputs": [],
      "name": "name",
      "outputs": [
        {
          "name": "",
          "type": "string"
        }
      ],
      "payable": false,
      "stateMutability": "view",
      "type": "function"
    },
    {
      "constant": true,
      "inputs": [
        {
          "name": "",
          "type": "uint256"
        }
      ],
      "name": "rainfallPayouts",
      "outputs": [
        {
          "name": "amount",
          "type": "uint256"
        },
        {
          "name": "rainBlock",
          "type": "uint256"
        }
      ],
      "payable": false,
      "stateMutability": "view",
      "type": "function"
    },
    {
      "constant": true,
      "inputs": [
        {
          "name": "",
          "type": "address"
        }
      ],
      "name": "balances",
      "outputs": [
        {
          "name": "amount",
          "type": "uint256"
        },
        {
          "name": "lastEvaporationBlock",
          "type": "uint256"
        }
      ],
      "payable": false,
      "stateMutability": "view",
      "type": "function"
    },
    {
      "constant": true,
      "inputs": [],
      "name": "registrar",
      "outputs": [
        {
          "name": "",
          "type": "address"
        }
      ],
      "payable": false,
      "stateMutability": "view",
      "type": "function"
    },
    {
      "constant": true,
      "inputs": [],
      "name": "decimals",
      "outputs": [
        {
          "name": "",
          "type": "uint8"
        }
      ],
      "payable": false,
      "stateMutability": "view",
      "type": "function"
    },
    {
      "constant": true,
      "inputs": [],
      "name": "parameterSetter",
      "outputs": [
        {
          "name": "",
          "type": "address"
        }
      ],
      "payable": false,
      "stateMutability": "view",
      "type": "function"
    },
    {
      "constant": true,
      "inputs": [
        {
          "name": "",
          "type": "address"
        },
        {
          "name": "",
          "type": "address"
        }
      ],
      "name": "allowed",
      "outputs": [
        {
          "name": "",
          "type": "uint256"
        }
      ],
      "payable": false,
      "stateMutability": "view",
      "type": "function"
    },
    {
      "constant": true,
      "inputs": [],
      "name": "evaporationRate",
      "outputs": [
        {
          "name": "",
          "type": "uint256"
        }
      ],
      "payable": false,
      "stateMutability": "view",
      "type": "function"
    },
    {
      "constant": true,
      "inputs": [],
      "name": "symbol",
      "outputs": [
        {
          "name": "",
          "type": "string"
        }
      ],
      "payable": false,
      "stateMutability": "view",
      "type": "function"
    },
    {
      "constant": true,
      "inputs": [
        {
          "name": "",
          "type": "address"
        }
      ],
      "name": "rainees",
      "outputs": [
        {
          "name": "",
          "type": "uint256"
        }
      ],
      "payable": false,
      "stateMutability": "view",
      "type": "function"
    },
    {
      "constant": true,
      "inputs": [],
      "name": "maxSupply",
      "outputs": [
        {
          "name": "",
          "type": "uint256"
        }
      ],
      "payable": false,
      "stateMutability": "view",
      "type": "function"
    },
    {
      "constant": true,
      "inputs": [],
      "name": "evaporationDenominator",
      "outputs": [
        {
          "name": "",
          "type": "uint256"
        }
      ],
      "payable": false,
      "stateMutability": "view",
      "type": "function"
    },
    {
      "constant": true,
      "inputs": [],
      "name": "blocksBetweenRainfalls",
      "outputs": [
        {
          "name": "",
          "type": "uint256"
        }
      ],
      "payable": false,
      "stateMutability": "view",
      "type": "function"
    },
    {
      "inputs": [
        {
          "name": "_maxSupply",
          "type": "uint256"
        },
        {
          "name": "_evaporationRate",
          "type": "uint256"
        },
        {
          "name": "_evaporationDenominator",
          "type": "uint256"
        },
        {
          "name": "_blocksBetweenRainfalls",
          "type": "uint256"
        }
      ],
      "payable": false,
      "stateMutability": "nonpayable",
      "type": "constructor"
    },
    {
      "anonymous": false,
      "inputs": [
        {
          "indexed": true,
          "name": "owner",
          "type": "address"
        },
        {
          "indexed": true,
          "name": "spender",
          "type": "address"
        },
        {
          "indexed": false,
          "name": "value",
          "type": "uint256"
        }
      ],
      "name": "Approval",
      "type": "event"
    },
    {
      "anonymous": false,
      "inputs": [
        {
          "indexed": true,
          "name": "from",
          "type": "address"
        },
        {
          "indexed": true,
          "name": "to",
          "type": "address"
        },
        {
          "indexed": false,
          "name": "value",
          "type": "uint256"
        }
      ],
      "name": "Transfer",
      "type": "event"
    },
    {
      "constant": true,
      "inputs": [],
      "name": "totalSupply",
      "outputs": [
        {
          "name": "",
          "type": "uint256"
        }
      ],
      "payable": false,
      "stateMutability": "view",
      "type": "function"
    },
    {
      "constant": false,
      "inputs": [
        {
          "name": "_to",
          "type": "address"
        },
        {
          "name": "_value",
          "type": "uint256"
        }
      ],
      "name": "transfer",
      "outputs": [
        {
          "name": "success",
          "type": "bool"
        }
      ],
      "payable": false,
      "stateMutability": "nonpayable",
      "type": "function"
    },
    {
      "constant": false,
      "inputs": [
        {
          "name": "_from",
          "type": "address"
        },
        {
          "name": "_to",
          "type": "address"
        },
        {
          "name": "_value",
          "type": "uint256"
        }
      ],
      "name": "transferFrom",
      "outputs": [
        {
          "name": "success",
          "type": "bool"
        }
      ],
      "payable": false,
      "stateMutability": "nonpayable",
      "type": "function"
    },
    {
      "constant": true,
      "inputs": [
        {
          "name": "_owner",
          "type": "address"
        }
      ],
      "name": "balanceOf",
      "outputs": [
        {
          "name": "balance",
          "type": "uint256"
        }
      ],
      "payable": false,
      "stateMutability": "view",
      "type": "function"
    },
    {
      "constant": false,
      "inputs": [
        {
          "name": "_spender",
          "type": "address"
        },
        {
          "name": "_value",
          "type": "uint256"
        }
      ],
      "name": "approve",
      "outputs": [
        {
          "name": "success",
          "type": "bool"
        }
      ],
      "payable": false,
      "stateMutability": "nonpayable",
      "type": "function"
    },
    {
      "constant": true,
      "inputs": [
        {
          "name": "_owner",
          "type": "address"
        },
        {
          "name": "_spender",
          "type": "address"
        }
      ],
      "name": "allowance",
      "outputs": [
        {
          "name": "remaining",
          "type": "uint256"
        }
      ],
      "payable": false,
      "stateMutability": "view",
      "type": "function"
    },
    {
      "constant": true,
      "inputs": [],
      "name": "currentRainfallIndex",
      "outputs": [
        {
          "name": "",
          "type": "uint256"
        }
      ],
      "payable": false,
      "stateMutability": "view",
      "type": "function"
    },
    {
      "constant": true,
      "inputs": [],
      "name": "lastRainBlock",
      "outputs": [
        {
          "name": "",
          "type": "uint256"
        }
      ],
      "payable": false,
      "stateMutability": "view",
      "type": "function"
    },
    {
      "constant": true,
      "inputs": [],
      "name": "rainPerRainfallPerPerson",
      "outputs": [
        {
          "name": "",
          "type": "uint256"
        }
      ],
      "payable": false,
      "stateMutability": "view",
      "type": "function"
    },
    {
      "constant": false,
      "inputs": [
        {
          "name": "_evaporationRate",
          "type": "uint256"
        },
        {
          "name": "_evaporationDenominator",
          "type": "uint256"
        }
      ],
      "name": "setEvaporationRate",
      "outputs": [],
      "payable": false,
      "stateMutability": "nonpayable",
      "type": "function"
    },
    {
      "constant": false,
      "inputs": [
        {
          "name": "_blocksBetweenRainfalls",
          "type": "uint256"
        }
      ],
      "name": "setRainfallPeriod",
      "outputs": [],
      "payable": false,
      "stateMutability": "nonpayable",
      "type": "function"
    },
    {
      "constant": false,
      "inputs": [
        {
          "name": "_rainee",
          "type": "address"
        }
      ],
      "name": "registerAddress",
      "outputs": [
        {
          "name": "success",
          "type": "bool"
        }
      ],
      "payable": false,
      "stateMutability": "nonpayable",
      "type": "function"
    },
    {
      "constant": false,
      "inputs": [
        {
          "name": "_rainee",
          "type": "address"
        }
      ],
      "name": "unregisterAddress",
      "outputs": [
        {
          "name": "success",
          "type": "bool"
        }
      ],
      "payable": false,
      "stateMutability": "nonpayable",
      "type": "function"
    },
    {
      "constant": false,
      "inputs": [
        {
          "name": "_parameterSetter",
          "type": "address"
        }
      ],
      "name": "changeParameterSetter",
      "outputs": [],
      "payable": false,
      "stateMutability": "nonpayable",
      "type": "function"
    },
    {
      "constant": false,
      "inputs": [
        {
          "name": "_registrar",
          "type": "address"
        }
      ],
      "name": "changeRegistrar",
      "outputs": [],
      "payable": false,
      "stateMutability": "nonpayable",
      "type": "function"
    },
    {
      "constant": false,
      "inputs": [
        {
          "name": "maxCollections",
          "type": "uint256"
        }
      ],
      "name": "collectRainfalls",
      "outputs": [
        {
          "name": "fundsCollected",
          "type": "uint256"
        }
      ],
      "payable": false,
      "stateMutability": "nonpayable",
      "type": "function"
    },
    {
      "constant": false,
      "inputs": [],
      "name": "collect",
      "outputs": [
        {
          "name": "fundsCollected",
          "type": "uint256"
        }
      ],
      "payable": false,
      "stateMutability": "nonpayable",
      "type": "function"
    },
    {
      "constant": false,
      "inputs": [],
      "name": "rain",
      "outputs": [
        {
          "name": "rainAmount",
          "type": "uint256"
        }
      ],
      "payable": false,
      "stateMutability": "nonpayable",
      "type": "function"
    },
    {
      "constant": true,
      "inputs": [
        {
          "name": "_addr",
          "type": "address"
        }
      ],
      "name": "calculateEvaporation",
      "outputs": [
        {
          "name": "",
          "type": "uint256"
        }
      ],
      "payable": false,
      "stateMutability": "view",
      "type": "function"
    },
    {
      "constant": true,
      "inputs": [],
      "name": "blockNumber",
      "outputs": [
        {
          "name": "",
          "type": "uint256"
        }
      ],
      "payable": false,
      "stateMutability": "view",
      "type": "function"
    }
  ],
  "bytecode": "0x60806040523480156200001157600080fd5b506040516080806200290f833981018060405281019080805190602001909291908051906020019092919080519060200190929190805190602001909291905050506040805190810160405280600581526020017f506c75766f0000000000000000000000000000000000000000000000000000008152506040805190810160405280600381526020017f504c56000000000000000000000000000000000000000000000000000000000081525060128260009080519060200190620000d992919062000253565b508160019080519060200190620000f292919062000253565b5080600260006101000a81548160ff021916908360ff1602179055505050508282101515156200012157600080fd5b6000821115156200013157600080fd5b6000841115156200014157600080fd5b60006005819055506000600e8190555083600d8190555082600a8190555081600b8190555080600c8190555060096040805190810160405280600081526020014381525090806001815401808255809150509060018203906000526020600020906002020160009091929091909150600082015181600001556020820151816001015550505033600660006101000a81548173ffffffffffffffffffffffffffffffffffffffff021916908373ffffffffffffffffffffffffffffffffffffffff16021790555033600760006101000a81548173ffffffffffffffffffffffffffffffffffffffff021916908373ffffffffffffffffffffffffffffffffffffffff1602179055505050505062000302565b828054600181600116156101000203166002900490600052602060002090601f016020900481019282601f106200029657805160ff1916838001178555620002c7565b82800160010185558215620002c7579182015b82811115620002c6578251825591602001919060010190620002a9565b5b509050620002d69190620002da565b5090565b620002ff91905b80821115620002fb576000816000905550600101620002e1565b5090565b90565b6125fd80620003126000396000f3006080604052600436106101ab576000357c0100000000000000000000000000000000000000000000000000000000900463ffffffff168062f7c5be146101b057806304a7aaff1461020b57806306fdde0314610236578063095ea7b3146102c65780630f43e73f1461032b57806318160ddd1461035657806323b872dd1461038157806327901b211461040657806327e235e31461044e5780632b20e397146104ac5780632e6831dc14610503578063313ce5671461052e578063319f924b1461055f5780633d49ee08146105b65780633e5354a7146105ed57806343def26e146106445780634a1a63151461066f57806357e871e7146106b05780635c658165146106db57806366a362f21461075257806370a082311461077d57806376b58810146107d457806389c551e21461081757806395d89b4114610842578063a8a54008146108d2578063a9059cbb1461092d578063c8206f7914610992578063d5abeb01146109e9578063dbaff60d14610a14578063dd62ed3e14610a41578063e127144e14610ab8578063e522538114610afb578063fa5980ee14610b26578063fba0c6cf14610b51575b600080fd5b3480156101bc57600080fd5b506101f1600480360381019080803573ffffffffffffffffffffffffffffffffffffffff169060200190929190505050610b7c565b604051808215151515815260200191505060405180910390f35b34801561021757600080fd5b50610220610d08565b6040518082815260200191505060405180910390f35b34801561024257600080fd5b5061024b610d0e565b6040518080602001828103825283818151815260200191508051906020019080838360005b8381101561028b578082015181840152602081019050610270565b50505050905090810190601f1680156102b85780820380516001836020036101000a031916815260200191505b509250505060405180910390f35b3480156102d257600080fd5b50610311600480360381019080803573ffffffffffffffffffffffffffffffffffffffff16906020019092919080359060200190929190505050610dac565b604051808215151515815260200191505060405180910390f35b34801561033757600080fd5b50610340610e9e565b6040518082815260200191505060405180910390f35b34801561036257600080fd5b5061036b610ee0565b6040518082815260200191505060405180910390f35b34801561038d57600080fd5b506103ec600480360381019080803573ffffffffffffffffffffffffffffffffffffffff169060200190929190803573ffffffffffffffffffffffffffffffffffffffff16906020019092919080359060200190929190505050610eea565b604051808215151515815260200191505060405180910390f35b34801561041257600080fd5b50610431600480360381019080803590602001909291905050506112bd565b604051808381526020018281526020019250505060405180910390f35b34801561045a57600080fd5b5061048f600480360381019080803573ffffffffffffffffffffffffffffffffffffffff1690602001909291905050506112f0565b604051808381526020018281526020019250505060405180910390f35b3480156104b857600080fd5b506104c1611314565b604051808273ffffffffffffffffffffffffffffffffffffffff1673ffffffffffffffffffffffffffffffffffffffff16815260200191505060405180910390f35b34801561050f57600080fd5b5061051861133a565b6040518082815260200191505060405180910390f35b34801561053a57600080fd5b50610543611347565b604051808260ff1660ff16815260200191505060405180910390f35b34801561056b57600080fd5b5061057461135a565b604051808273ffffffffffffffffffffffffffffffffffffffff1673ffffffffffffffffffffffffffffffffffffffff16815260200191505060405180910390f35b3480156105c257600080fd5b506105eb6004803603810190808035906020019092919080359060200190929190505050611380565b005b3480156105f957600080fd5b5061062e600480360381019080803573ffffffffffffffffffffffffffffffffffffffff169060200190929190505050611477565b6040518082815260200191505060405180910390f35b34801561065057600080fd5b5061065961150e565b6040518082815260200191505060405180910390f35b34801561067b57600080fd5b5061069a600480360381019080803590602001909291905050506115fd565b6040518082815260200191505060405180910390f35b3480156106bc57600080fd5b506106c561187d565b6040518082815260200191505060405180910390f35b3480156106e757600080fd5b5061073c600480360381019080803573ffffffffffffffffffffffffffffffffffffffff169060200190929190803573ffffffffffffffffffffffffffffffffffffffff169060200190929190505050611885565b6040518082815260200191505060405180910390f35b34801561075e57600080fd5b506107676118aa565b6040518082815260200191505060405180910390f35b34801561078957600080fd5b506107be600480360381019080803573ffffffffffffffffffffffffffffffffffffffff169060200190929190505050611968565b6040518082815260200191505060405180910390f35b3480156107e057600080fd5b50610815600480360381019080803573ffffffffffffffffffffffffffffffffffffffff1690602001909291905050506119ce565b005b34801561082357600080fd5b5061082c611ad9565b6040518082815260200191505060405180910390f35b34801561084e57600080fd5b50610857611adf565b6040518080602001828103825283818151815260200191508051906020019080838360005b8381101561089757808201518184015260208101905061087c565b50505050905090810190601f1680156108c45780820380516001836020036101000a031916815260200191505b509250505060405180910390f35b3480156108de57600080fd5b50610913600480360381019080803573ffffffffffffffffffffffffffffffffffffffff169060200190929190505050611b7d565b604051808215151515815260200191505060405180910390f35b34801561093957600080fd5b50610978600480360381019080803573ffffffffffffffffffffffffffffffffffffffff16906020019092919080359060200190929190505050611d11565b604051808215151515815260200191505060405180910390f35b34801561099e57600080fd5b506109d3600480360381019080803573ffffffffffffffffffffffffffffffffffffffff169060200190929190505050611f1b565b6040518082815260200191505060405180910390f35b3480156109f557600080fd5b506109fe611f33565b6040518082815260200191505060405180910390f35b348015610a2057600080fd5b50610a3f60048036038101908080359060200190929190505050611f39565b005b348015610a4d57600080fd5b50610aa2600480360381019080803573ffffffffffffffffffffffffffffffffffffffff169060200190929190803573ffffffffffffffffffffffffffffffffffffffff169060200190929190505050612013565b6040518082815260200191505060405180910390f35b348015610ac457600080fd5b50610af9600480360381019080803573ffffffffffffffffffffffffffffffffffffffff16906020019092919050505061209a565b005b348015610b0757600080fd5b50610b106121a5565b6040518082815260200191505060405180910390f35b348015610b3257600080fd5b50610b3b6121d5565b6040518082815260200191505060405180910390f35b348015610b5d57600080fd5b50610b666121db565b6040518082815260200191505060405180910390f35b6000600760009054906101000a900473ffffffffffffffffffffffffffffffffffffffff168073ffffffffffffffffffffffffffffffffffffffff163373ffffffffffffffffffffffffffffffffffffffff16141515610c44576040517f08c379a00000000000000000000000000000000000000000000000000000000081526004018080602001828103825260148152602001807f53656e64657220756e617574686f72697a65642e00000000000000000000000081525060200191505060405180910390fd5b6000600860008573ffffffffffffffffffffffffffffffffffffffff1673ffffffffffffffffffffffffffffffffffffffff168152602001908152602001600020541115610cfd57610c9461150e565b50600860008473ffffffffffffffffffffffffffffffffffffffff1673ffffffffffffffffffffffffffffffffffffffff16815260200190815260200160002060009055610cee6001600e546121e190919063ffffffff16565b600e8190555060019150610d02565b600091505b50919050565b600e5481565b60008054600181600116156101000203166002900480601f016020809104026020016040519081016040528092919081815260200182805460018160011615610100020316600290048015610da45780601f10610d7957610100808354040283529160200191610da4565b820191906000526020600020905b815481529060010190602001808311610d8757829003601f168201915b505050505081565b600081600460003373ffffffffffffffffffffffffffffffffffffffff1673ffffffffffffffffffffffffffffffffffffffff16815260200190815260200160002060008573ffffffffffffffffffffffffffffffffffffffff1673ffffffffffffffffffffffffffffffffffffffff168152602001908152602001600020819055508273ffffffffffffffffffffffffffffffffffffffff163373ffffffffffffffffffffffffffffffffffffffff167f8c5be1e5ebec7d5bd14f71427d1e84f3dd0314c0f7b2291e5b200ac8c7c3b925846040518082815260200191505060405180910390a36001905092915050565b60006009610ebd6001610eaf61133a565b6121e190919063ffffffff16565b815481101515610ec957fe5b906000526020600020906002020160010154905090565b6000600554905090565b600080600460008673ffffffffffffffffffffffffffffffffffffffff1673ffffffffffffffffffffffffffffffffffffffff16815260200190815260200160002060003373ffffffffffffffffffffffffffffffffffffffff1673ffffffffffffffffffffffffffffffffffffffff168152602001908152602001600020549050828110151515610f7b57600080fd5b610f84856121fa565b82600360008773ffffffffffffffffffffffffffffffffffffffff1673ffffffffffffffffffffffffffffffffffffffff1681526020019081526020016000206000015410151515610fd557600080fd5b610fde846121fa565b61103383600360008873ffffffffffffffffffffffffffffffffffffffff1673ffffffffffffffffffffffffffffffffffffffff168152602001908152602001600020600001546121e190919063ffffffff16565b600360008773ffffffffffffffffffffffffffffffffffffffff1673ffffffffffffffffffffffffffffffffffffffff168152602001908152602001600020600001819055506110ce83600360008773ffffffffffffffffffffffffffffffffffffffff1673ffffffffffffffffffffffffffffffffffffffff1681526020019081526020016000206000015461240590919063ffffffff16565b600360008673ffffffffffffffffffffffffffffffffffffffff1673ffffffffffffffffffffffffffffffffffffffff168152602001908152602001600020600001819055507fffffffffffffffffffffffffffffffffffffffffffffffffffffffffffffffff81101561124c576111cb83600460008873ffffffffffffffffffffffffffffffffffffffff1673ffffffffffffffffffffffffffffffffffffffff16815260200190815260200160002060003373ffffffffffffffffffffffffffffffffffffffff1673ffffffffffffffffffffffffffffffffffffffff168152602001908152602001600020546121e190919063ffffffff16565b600460008773ffffffffffffffffffffffffffffffffffffffff1673ffffffffffffffffffffffffffffffffffffffff16815260200190815260200160002060003373ffffffffffffffffffffffffffffffffffffffff1673ffffffffffffffffffffffffffffffffffffffff168152602001908152602001600020819055505b8373ffffffffffffffffffffffffffffffffffffffff168573ffffffffffffffffffffffffffffffffffffffff167fddf252ad1be2c89b69c2b068fc378daa952ba7f163c4a11628f55a4df523b3ef856040518082815260200191505060405180910390a360019150509392505050565b6009818154811015156112cc57fe5b90600052602060002090600202016000915090508060000154908060010154905082565b60036020528060005260406000206000915090508060000154908060010154905082565b600760009054906101000a900473ffffffffffffffffffffffffffffffffffffffff1681565b6000600980549050905090565b600260009054906101000a900460ff1681565b600660009054906101000a900473ffffffffffffffffffffffffffffffffffffffff1681565b600660009054906101000a900473ffffffffffffffffffffffffffffffffffffffff168073ffffffffffffffffffffffffffffffffffffffff163373ffffffffffffffffffffffffffffffffffffffff16141515611446576040517f08c379a00000000000000000000000000000000000000000000000000000000081526004018080602001828103825260148152602001807f53656e64657220756e617574686f72697a65642e00000000000000000000000081525060200191505060405180910390fd5b82821015151561145557600080fd5b60008211151561146457600080fd5b82600a8190555081600b81905550505050565b6000611507600360008473ffffffffffffffffffffffffffffffffffffffff1673ffffffffffffffffffffffffffffffffffffffff16815260200190815260200160002060000154600360008573ffffffffffffffffffffffffffffffffffffffff1673ffffffffffffffffffffffffffffffffffffffff16815260200190815260200160002060010154612421565b9050919050565b6000806000600e5411156115f95761154a600c5461153c61152d610e9e565b436121e190919063ffffffff16565b6124eb90919063ffffffff16565b905060008111156115f85761156f816115616118aa565b61250190919063ffffffff16565b9150600960408051908101604052808481526020016115b261158f610e9e565b6115a486600c5461250190919063ffffffff16565b61240590919063ffffffff16565b8152509080600181540180825580915050906001820390600052602060002090600202016000909192909190915060008201518160000155602082015181600101555050505b5b5090565b600080600080600080600080600860003373ffffffffffffffffffffffffffffffffffffffff1673ffffffffffffffffffffffffffffffffffffffff1681526020019081526020016000205411151561165557600080fd5b61165d61150e565b50600860003373ffffffffffffffffffffffffffffffffffffffff1673ffffffffffffffffffffffffffffffffffffffff1681526020019081526020016000205495506116a861133a565b945085851115156116b857600080fd5b876116cc87876121e190919063ffffffff16565b11156116dc5787860193506116e0565b8493505b8592505b8383101561176f576009838154811015156116fb57fe5b906000526020600020906002020160000154915060098381548110151561171e57fe5b906000526020600020906002020160010154905061176061173f8383612421565b611752848a61240590919063ffffffff16565b6121e190919063ffffffff16565b965082806001019350506116e4565b611778336121fa565b6117cd87600360003373ffffffffffffffffffffffffffffffffffffffff1673ffffffffffffffffffffffffffffffffffffffff1681526020019081526020016000206000015461240590919063ffffffff16565b600360003373ffffffffffffffffffffffffffffffffffffffff1673ffffffffffffffffffffffffffffffffffffffff1681526020019081526020016000206000018190555083600860003373ffffffffffffffffffffffffffffffffffffffff1673ffffffffffffffffffffffffffffffffffffffff1681526020019081526020016000208190555061186c8760055461240590919063ffffffff16565b600581905550505050505050919050565b600043905090565b6004602052816000526040600020602052806000526040600020600091509150505481565b600080600e541115156118bc57600080fd5b61190f600e54611901600b546118f3600a546118e5600c54600d5461250190919063ffffffff16565b61250190919063ffffffff16565b6124eb90919063ffffffff16565b6124eb90919063ffffffff16565b50611963600e54611955600b54611947600a54611939600c54600d5461250190919063ffffffff16565b61250190919063ffffffff16565b6124eb90919063ffffffff16565b6124eb90919063ffffffff16565b905090565b60006119c761197683611477565b600360008573ffffffffffffffffffffffffffffffffffffffff1673ffffffffffffffffffffffffffffffffffffffff168152602001908152602001600020600001546121e190919063ffffffff16565b9050919050565b600760009054906101000a900473ffffffffffffffffffffffffffffffffffffffff168073ffffffffffffffffffffffffffffffffffffffff163373ffffffffffffffffffffffffffffffffffffffff16141515611a94576040517f08c379a00000000000000000000000000000000000000000000000000000000081526004018080602001828103825260148152602001807f53656e64657220756e617574686f72697a65642e00000000000000000000000081525060200191505060405180910390fd5b81600760006101000a81548173ffffffffffffffffffffffffffffffffffffffff021916908373ffffffffffffffffffffffffffffffffffffffff1602179055505050565b600a5481565b60018054600181600116156101000203166002900480601f016020809104026020016040519081016040528092919081815260200182805460018160011615610100020316600290048015611b755780601f10611b4a57610100808354040283529160200191611b75565b820191906000526020600020905b815481529060010190602001808311611b5857829003601f168201915b505050505081565b6000600760009054906101000a900473ffffffffffffffffffffffffffffffffffffffff168073ffffffffffffffffffffffffffffffffffffffff163373ffffffffffffffffffffffffffffffffffffffff16141515611c45576040517f08c379a00000000000000000000000000000000000000000000000000000000081526004018080602001828103825260148152602001807f53656e64657220756e617574686f72697a65642e00000000000000000000000081525060200191505060405180910390fd5b6000600860008573ffffffffffffffffffffffffffffffffffffffff1673ffffffffffffffffffffffffffffffffffffffff168152602001908152602001600020541415611d0657611c9561150e565b50611c9e61133a565b600860008573ffffffffffffffffffffffffffffffffffffffff1673ffffffffffffffffffffffffffffffffffffffff16815260200190815260200160002081905550611cf76001600e5461240590919063ffffffff16565b600e8190555060019150611d0b565b600091505b50919050565b6000611d1c336121fa565b81600360003373ffffffffffffffffffffffffffffffffffffffff1673ffffffffffffffffffffffffffffffffffffffff1681526020019081526020016000206000015410151515611d6d57600080fd5b611d76836121fa565b611dcb82600360003373ffffffffffffffffffffffffffffffffffffffff1673ffffffffffffffffffffffffffffffffffffffff168152602001908152602001600020600001546121e190919063ffffffff16565b600360003373ffffffffffffffffffffffffffffffffffffffff1673ffffffffffffffffffffffffffffffffffffffff16815260200190815260200160002060000181905550611e6682600360008673ffffffffffffffffffffffffffffffffffffffff1673ffffffffffffffffffffffffffffffffffffffff1681526020019081526020016000206000015461240590919063ffffffff16565b600360008573ffffffffffffffffffffffffffffffffffffffff1673ffffffffffffffffffffffffffffffffffffffff168152602001908152602001600020600001819055508273ffffffffffffffffffffffffffffffffffffffff163373ffffffffffffffffffffffffffffffffffffffff167fddf252ad1be2c89b69c2b068fc378daa952ba7f163c4a11628f55a4df523b3ef846040518082815260200191505060405180910390a36001905092915050565b60086020528060005260406000206000915090505481565b600d5481565b600660009054906101000a900473ffffffffffffffffffffffffffffffffffffffff168073ffffffffffffffffffffffffffffffffffffffff163373ffffffffffffffffffffffffffffffffffffffff16141515611fff576040517f08c379a00000000000000000000000000000000000000000000000000000000081526004018080602001828103825260148152602001807f53656e64657220756e617574686f72697a65642e00000000000000000000000081525060200191505060405180910390fd5b61200761150e565b5081600c819055505050565b6000600460008473ffffffffffffffffffffffffffffffffffffffff1673ffffffffffffffffffffffffffffffffffffffff16815260200190815260200160002060008373ffffffffffffffffffffffffffffffffffffffff1673ffffffffffffffffffffffffffffffffffffffff16815260200190815260200160002054905092915050565b600660009054906101000a900473ffffffffffffffffffffffffffffffffffffffff168073ffffffffffffffffffffffffffffffffffffffff163373ffffffffffffffffffffffffffffffffffffffff16141515612160576040517f08c379a00000000000000000000000000000000000000000000000000000000081526004018080602001828103825260148152602001807f53656e64657220756e617574686f72697a65642e00000000000000000000000081525060200191505060405180910390fd5b81600660006101000a81548173ffffffffffffffffffffffffffffffffffffffff021916908373ffffffffffffffffffffffffffffffffffffffff1602179055505050565b60006121d07fffffffffffffffffffffffffffffffffffffffffffffffffffffffffffffffff6115fd565b905090565b600b5481565b600c5481565b60008282111515156121ef57fe5b818303905092915050565b600080600360008473ffffffffffffffffffffffffffffffffffffffff1673ffffffffffffffffffffffffffffffffffffffff1681526020019081526020016000206000015414156122995761224e610e9e565b600360008473ffffffffffffffffffffffffffffffffffffffff1673ffffffffffffffffffffffffffffffffffffffff16815260200190815260200160002060010181905550612401565b6000600360008473ffffffffffffffffffffffffffffffffffffffff1673ffffffffffffffffffffffffffffffffffffffff168152602001908152602001600020600101541115156122e757fe5b6122f082611477565b905060008111156124005761235081600360008573ffffffffffffffffffffffffffffffffffffffff1673ffffffffffffffffffffffffffffffffffffffff168152602001908152602001600020600001546121e190919063ffffffff16565b600360008473ffffffffffffffffffffffffffffffffffffffff1673ffffffffffffffffffffffffffffffffffffffff1681526020019081526020016000206000018190555061239e610e9e565b600360008473ffffffffffffffffffffffffffffffffffffffff1673ffffffffffffffffffffffffffffffffffffffff168152602001908152602001600020600101819055506123f9816005546121e190919063ffffffff16565b6005819055505b5b5050565b6000818301905082811015151561241857fe5b80905092915050565b60008060008060008086431015151561243957600080fd5b6000600a54141561244d57600095506124e0565b612474600c5461246689436121e190919063ffffffff16565b6124eb90919063ffffffff16565b945061248b600c548661250190919063ffffffff16565b93506124a4600a54600b546124eb90919063ffffffff16565b9250600891506124ca6124bb898587600187612539565b896121e190919063ffffffff16565b9050878111156124dc578795506124e0565b8095505b505050505092915050565b600081838115156124f857fe5b04905092915050565b6000808314156125145760009050612533565b818302905081838281151561252557fe5b0414151561252f57fe5b8090505b92915050565b600080600080600080600094506001935060019250600091505b868210156125c057818a0a83858d0281151561256b57fe5b0481151561257557fe5b0490508780156125915750600160028381151561258e57fe5b06145b156125a05780850394506125a6565b80850194505b818903840293506001820183029250816001019150612553565b8495505050505050959450505050505600a165627a7a72305820915425fd594daba0dcdd274cb29a49a5894549c4e8c18a4b5a297d41e7fb3b190029",
  "source": "pragma solidity ^0.4.24;\npragma experimental \"v0.5.0\";\n\nimport \"openzeppelin-solidity/contracts/token/ERC20/DetailedERC20.sol\";\nimport \"openzeppelin-solidity/contracts/math/SafeMath.sol\";\n\ncontract Pluvo is DetailedERC20(\"Pluvo\", \"PLV\", 18) {\n    using SafeMath for uint256;\n\n    /*--------- CONSTANTS ---------*/\n    \n    uint256 constant private MAX_UINT256 = 2**256 - 1;\n    \n    /*--------- ERC20 Variables ---------*/\n    \n    struct Balance {\n        uint256 amount;\n        uint256 lastEvaporationBlock;\n    }\n    \n    mapping (address => Balance) public balances;\n    mapping (address => mapping (address => uint256)) public allowed;\n    \n    /// total amount of tokens\n    uint256 public totalSupply;\n\n    /*--------- Contract Constructor ---------*/\n    \n    constructor (\n        uint256 _maxSupply,\n        uint256 _evaporationRate,\n        uint256 _evaporationDenominator,\n        uint256 _blocksBetweenRainfalls\n    ) public {\n        require(_evaporationDenominator >= _evaporationRate);\n        require(_evaporationDenominator > 0);\n        require(_maxSupply > 0);\n        totalSupply = 0; // initialize to 0; supply will grow due to rain\n        numberOfRainees = 0;  // initialize to 0; no one has registered yet\n        maxSupply = _maxSupply;\n        evaporationRate = _evaporationRate;\n        evaporationDenominator = _evaporationDenominator;\n        blocksBetweenRainfalls = _blocksBetweenRainfalls;\n        rainfallPayouts.push(Rain(0, block.number));\n        parameterSetter = msg.sender;\n        registrar = msg.sender;\n    }\n    \n    /*--------- Modifiers ---------*/\n    \n    /// @notice Restrict function access to given address\n    modifier onlyBy(address _account) {\n        require(msg.sender == _account, \"Sender unauthorized.\");\n        _;\n    }\n    \n    /*--------- ERC20 Functions ---------*/\n    \n    /// @notice Return the total supply\n    /// @return total supply\n    function totalSupply() public view returns (uint256) {\n        return totalSupply;\n    }\n\n    /// @notice send `_value` token to `_to` from `msg.sender`\n    /// @notice first, the message sender's balance falls by \n    ///         amount evaporated since last transfer\n    /// @param _to The address of the recipient\n    /// @param _value The amount of token to be transferred\n    /// @return Whether the transfer was successful or not\n    function transfer(address _to, uint256 _value) \n        public returns (bool success) {\n        // evaporate from the sender\n        evaporate(msg.sender);\n\n        // ensure enough funds are available to send\n        require(balances[msg.sender].amount >= _value);\n        \n        // evaporate from the recipient\n        evaporate(_to);\n        \n        // send funds\n        balances[msg.sender].amount = balances[msg.sender].amount.sub(_value);\n        balances[_to].amount = balances[_to].amount.add(_value);\n        emit Transfer(msg.sender, _to, _value);\n        return true;\n    }\n\n    /// @notice send `_value` token to `_to` from `_from` \n    ///         on the condition it is approved by `_from`\n    /// @notice first, the _from address balance falls\n    ///         by amount evaporated since last transfer\n    /// @param _from The address of the sender\n    /// @param _to The address of the recipient\n    /// @param _value The amount of token to be transferred\n    /// @return Whether the transfer was successful or not\n    function transferFrom(address _from, address _to, uint256 _value) \n        public returns (bool success) {\n        // ensure message sender is authorized to spend from the _from address\n        uint256 allowance = allowed[_from][msg.sender];\n        require(allowance >= _value);\n        \n        // evaporate from the _from address\n        evaporate(_from);\n\n        // ensure enough funds are available to send\n        require(balances[_from].amount >= _value);\n        \n        // evaporate from the recipient\n        evaporate(_to);\n        \n        // the _from address then pays the recipient\n        balances[_from].amount = balances[_from].amount.sub(_value);\n        balances[_to].amount = balances[_to].amount.add(_value);\n        if (allowance < MAX_UINT256) {\n            allowed[_from][msg.sender] =\n                allowed[_from][msg.sender].sub(_value);\n        }\n        emit Transfer(_from, _to, _value);\n        return true;\n    }\n\n    /// @notice Displays the address's balance, \n    ///         after evaporation has been paid.\n    /// @notice This does not pay the evaporation, \n    ///         which would get paid at next transfer.\n    /// @param _owner The address from which the balance will be retrieved.\n    /// @return The balance as if evaporation been paid.\n    function balanceOf(address _owner) public view returns (uint256 balance) {\n        return balances[_owner].amount.sub(calculateEvaporation(_owner));\n    }\n\n    /// @notice `msg.sender` approves `_spender` to spend `_value` tokens\n    /// @param _spender The address of the account able to transfer the tokens\n    /// @param _value The amount of tokens to be approved for transfer\n    /// @return Whether the approval was successful or not\n    function approve(address _spender, uint256 _value) \n        public returns (bool success) {\n        allowed[msg.sender][_spender] = _value;\n        emit Approval(msg.sender, _spender, _value);\n        return true;\n    }\n\n    /// @param _owner The address of the account owning tokens\n    /// @param _spender The address of the account able to transfer the tokens\n    /// @return Amount of remaining tokens allowed to spent\n    function allowance(address _owner, address _spender) \n        public view returns (uint256 remaining) {\n        return allowed[_owner][_spender];\n    }\n    \n    \n    /*--------- Pluvo Variables ---------*/\n    \n    // address of parameter setter, for functions that require authorization\n    address public parameterSetter;\n    \n    // registrar address, authorized to register and unregister addresses\n    address public registrar;\n    \n    // authorized recipients of rain, \n    // mapping from address to last rainfall collected\n    mapping (address => uint256) public rainees;\n    \n    // used to store the amount and block number for each rainfall\n    struct Rain {\n        uint256 amount;\n        uint256 rainBlock;\n    }\n    \n    // stores payout amount and block number for each rainfall\n    Rain[] public rainfallPayouts;\n    \n    // evaporationRate coins per denominator evaporate per block\n    uint256 public evaporationRate; \n    uint256 public evaporationDenominator;\n    \n    /* number of blocks between rainfall payouts\n     * this state variable exists to lessen number of contract \n     * calls that happen\n     * when people collect their rain.\n     */\n    uint256 public blocksBetweenRainfalls;\n\n    // maximum supply ever, used for calculating rain amount\n    uint256 public maxSupply;\n    \n    // number of addresses registered as rainees\n    uint256 public numberOfRainees;\n    \n\n    /*--------- Pluvo functions ---------*/\n    \n    /// @notice Counts 1 more than the number of past rainfalls. This is \n    /// because the rainfallPayouts array is seeded with a (0, block.number) \n    /// value in the constructor.\n    /// @notice That is, this returns the index of the rainfall that is about \n    /// to occur next. For example, a return value of 2 indicates that the \n    /// next rainfall will be the second rainfall ever.\n    /// @return Number of past rainfalls.\n    function currentRainfallIndex() public view returns (uint256) {\n        return rainfallPayouts.length;\n    }\n\n    /// @notice This is guaranteed to return a value because the \n    /// rainfallPayouts array was seeded with a Rain struct in the constructor\n    /// @notice Determine the last block when rain happened\n    /// @return Last block number when rain happened\n    function lastRainBlock() public view returns (uint256) {\n        return rainfallPayouts[currentRainfallIndex().sub(1)].rainBlock;\n    }\n\n    /// @notice Determine the total amount of rainfall due to each recipient \n    /// in the next rainfall.\n    /// @return Total rainfall due in a rainfall to each registered address.\n    function rainPerRainfallPerPerson() public view returns (uint256) {\n        require(numberOfRainees > 0);\n        maxSupply.mul(blocksBetweenRainfalls).mul(evaporationRate).div(evaporationDenominator).div(numberOfRainees);\n        return \n            maxSupply\n            .mul(blocksBetweenRainfalls)\n            .mul(evaporationRate)\n            .div(evaporationDenominator)\n            .div(numberOfRainees);\n    }\n    \n    /// @notice Set the evaporation rate numerator and denominator.\n    /// @return True if evaporation rate was updated; false otherwise.\n    function setEvaporationRate(\n        uint256 _evaporationRate,\n        uint256 _evaporationDenominator\n    ) public onlyBy(parameterSetter) {\n        require(_evaporationDenominator >= _evaporationRate);\n        require(_evaporationDenominator > 0);\n        evaporationRate = _evaporationRate;\n        evaporationDenominator = _evaporationDenominator;\n    }\n    \n    /// @notice Set the rainfall period, in number of blocks between rainfalls.\n    /// @notice Will rain if a rain is due given the current \n    /// blocksBetweenRainfalls.\n    function setRainfallPeriod(uint256 _blocksBetweenRainfalls) \n        public onlyBy(parameterSetter) {\n        rain();\n        blocksBetweenRainfalls = _blocksBetweenRainfalls;\n    }\n    \n    /// @notice Register an address as an available rainee.\n    /// @notice This function causes a rainfall before registration, if enough \n    /// time has elapsed.\n    /// @notice Note that this does not yet check for authorization.\n    /// @param _rainee The address to register\n    /// @return True if the address was registered, false if the address was \n    /// already registered\n    function registerAddress(address _rainee) \n        public onlyBy(registrar) returns (bool success) {\n        if (rainees[_rainee] == 0) {\n            rain(); // rain first, if enough time has elapsed\n            rainees[_rainee] = currentRainfallIndex();\n            numberOfRainees = numberOfRainees.add(1);\n            return true;\n        }\n        return false;\n    }\n    \n    /// @notice Unregister an address, making it no longer an available rainee.\n    /// @notice This function causes a rainfall before unregistration,\n    /// if enough time has elapsed.\n    /// @notice Note that this does not yet check for authorization.\n    /// @param _rainee The address to unregister\n    /// @return True if the address was unregistered, \n    /// false if the address was already unregistered\n    function unregisterAddress(address _rainee) \n        public onlyBy(registrar) returns (bool success) {\n        if (rainees[_rainee] > 0) {\n            rain(); // rain first, if enough time has elapsed\n            delete rainees[_rainee];\n            numberOfRainees = numberOfRainees.sub(1);\n            return true;\n        }\n        return false;\n    }\n    \n    /// @notice Changes the parameterSetter\n    function changeParameterSetter(address _parameterSetter) \n        public onlyBy(parameterSetter) {\n        parameterSetter = _parameterSetter;\n    }\n\n    /// @notice Changes the registrar\n    function changeRegistrar(address _registrar) public onlyBy(registrar) {\n        registrar = _registrar;\n    }\n    \n    /// @notice Increase message sender's balance by amount of available rain.\n    /// @notice Requires that message sender is authorized.\n    /// @notice Collection first performs any evaporation.\n    /// @notice This function allows user to specify the maximum number of\n    /// rainfalls to collect, thereby saving gas if there are many rainfalls\n    /// to collect.\n    /// @param maxCollections maximum number of rainfalls to collect\n    /// @return Amount collected.\n    function collectRainfalls(uint256 maxCollections) \n        public returns (uint256 fundsCollected) {\n        // ensure message sender is authorized\n        require(rainees[msg.sender] > 0);\n\n        // rain, if necessary\n        rain(); // rain() only rains if enough time has elapsed\n        \n        // ensure there is rain to be collected by the user\n        uint256 currentRainfallOfSender = rainees[msg.sender];\n        uint256 currentRainfall = currentRainfallIndex();\n        require(currentRainfall > currentRainfallOfSender);\n\n        // determine upper limit of rainfalls to collect\n        uint256 upperLimit;\n        if (currentRainfall.sub(currentRainfallOfSender) > maxCollections)\n            upperLimit = currentRainfallOfSender + maxCollections;\n        else\n            upperLimit = currentRainfall;\n\n        // calculate amount available to collect\n        // subtract evaporation before collection\n        for (uint256 i = currentRainfallOfSender; i < upperLimit; i++) {\n            uint256 amt = rainfallPayouts[i].amount;\n            uint256 blk = rainfallPayouts[i].rainBlock;\n            fundsCollected = \n                fundsCollected.add(amt).sub(calculateEvaporation(amt, blk));\n        }\n\n        // evaporate from message sender\n        // if current balance is zero, this updates the address's \n        // lastEvaporationBlock to the current block number\n        evaporate(msg.sender);\n        \n        // pay collection to recipient\n        balances[msg.sender].amount = \n            balances[msg.sender].amount.add(fundsCollected);\n        \n        // update recipient's last rainfall collection index\n        rainees[msg.sender] = upperLimit;\n\n        // update total supply\n        totalSupply = totalSupply.add(fundsCollected);\n\n        // implied: return fundsCollected;\n    }\n\n    /// @notice Increase message sender's balance by amount of available rain.\n    /// @notice Requires that message sender is authorized.\n    /// @notice Collection first performs any evaporation.\n    /// @return Amount collected.\n    function collect() public returns (uint256 fundsCollected) {\n        return collectRainfalls(MAX_UINT256);\n    }\n\n    /// @notice Store rainfall payout(s) due since last rainfall.\n    /// @notice If multiple rainfalls should have occurred, store the rain \n    /// from each of them.\n    /// @return True if enough time had elapsed since last rainfall.\n    function rain() public returns (uint256 rainAmount) {\n        if (numberOfRainees > 0) {\n            uint256 rainfallsDue =\n                block.number.sub(lastRainBlock()).div(blocksBetweenRainfalls);\n    \n            // store per-person rainfall amount \n            // also note that, due to integer division, \n            // lastRainBlock() + (blocksBetweenRainfalls * rainfallsDue)\n            // is not necessarily equal to block.number \n            if (rainfallsDue > 0) {\n                rainAmount = rainPerRainfallPerPerson().mul(rainfallsDue);\n                rainfallPayouts.push(\n                    Rain(\n                        rainAmount, \n                        blocksBetweenRainfalls.mul(rainfallsDue)\n                        .add(lastRainBlock())\n                    )\n                );\n            }\n        }\n    }\n    \n    /// @notice Calculates evaporation amount for a given balance and block\n    /// number, without evaporating.\n    /// @notice chain-weights the per-block evaporation rate so evaporation\n    /// will not be > 100%\n    /// @param balance amount of coins to evaporate\n    /// @param lastBlock last block when evaporation occurred\n    function calculateEvaporation(\n        uint256 balance, \n        uint256 lastBlock\n    ) private view returns (uint256) {\n        require(block.number >= lastBlock);\n        if (evaporationRate == 0)\n            return 0;\n        \n        uint256 elapsedEvaporations = \n            block.number.sub(lastBlock).div(blocksBetweenRainfalls);\n\n        // due to integer division, elapsedBlocks does not necessarily equal\n        // block.number - lastBlock\n        uint256 elapsedBlocks = \n            elapsedEvaporations.mul(blocksBetweenRainfalls);\n\n        uint256 q = evaporationDenominator.div(evaporationRate);\n        uint256 precision = 8; // higher precision costs more gas\n        uint256 maxEvaporation = \n            balance.sub( \n                fractionalExponentiation(\n                    balance, q, elapsedBlocks, true, precision\n                )\n            );\n        if (maxEvaporation > balance)\n            return balance;\n        else\n            return maxEvaporation;\n    }\n\n    /// @notice Calculates evaporation amount for a given address,\n    /// without evaporating.\n    /// @notice chain-weights the per-block evaporation rate\n    /// so evaporation will not be > 100%\n    /// @param _addr address from which to calcuate evaporation\n    function calculateEvaporation(address _addr) \n        public view returns (uint256) {\n        return calculateEvaporation(\n            balances[_addr].amount,\n            balances[_addr].lastEvaporationBlock\n        );\n    }\n\n    \n    /// @notice Evaporate coins for a given address.\n    /// @notice Only evaporate during rain blocks.\n    /// @param _addr address from which to perform evaporation\n    function evaporate(address _addr) private {\n        // for a zero balance, just update the lastEvaporationBlock\n        if (balances[_addr].amount == 0)\n            balances[_addr].lastEvaporationBlock = lastRainBlock();\n        \n        // for positive balances, evaporate coins and update \n        // the lastEvaporationBlock,\n        // but only do so if evaporation amount is positive\n        else {\n            // this assert must be true for positive balances\n            assert(balances[_addr].lastEvaporationBlock > 0); \n            uint256 evaporation = calculateEvaporation(_addr);\n            if (evaporation > 0) {\n                balances[_addr].amount = \n                    balances[_addr].amount.sub(evaporation); // pay evaporation\n                balances[_addr].lastEvaporationBlock = lastRainBlock();\n                totalSupply = totalSupply.sub(evaporation);\n            }\n        }\n    }\n    \n    \n    /*--------- Math Functions ---------*/\n    \n    /// @notice Computes `k * (1+1/q) ^ n`, with precision `p`, for b = false\n    /// @notice Computes `k * (1-1/q) ^ n`, with precision `p`, for b = true\n    /// @notice Small values of p get a close approimation\n    /// @param k coefficient\n    /// @param q divisor (e.g., for 1.02^n, q = 100)\n    /// @param n exponent\n    /// @param b negative toggle (e.g., b = true for 0.99^n,\n    /// b = false for 1.01^n)\n    /// @param p precision parameter. (p ~ log(n) is usually enough). \n    /// Higher p costs more gas\n    /// @return result of computation (k * (1  1/q) ^ n)\n    function fractionalExponentiation(uint k, uint q, uint n, bool b, uint p) \n        private pure returns (uint) {\n        uint s = 0;\n        uint N = 1;\n        uint B = 1;\n        for (uint i = 0; i < p; ++i) {\n            uint256 update = k * N / B / (q**i);\n            if (b && i % 2 == 1)\n                s -= update;\n            else\n                s += update;\n            N = N * (n-i);\n            B = B * (i+1);\n        }\n        return s;\n    }\n    \n    // TODO: DELETE THIS FOR PRODUCTION\n    function blockNumber() public view returns (uint256) {\n        return block.number;\n    }\n}\n",
  "sourcePath": "/Users/theshepster/Google Drive/Harvard/Thesis/Pluvo/contracts/Pluvo.sol",
  "compiler": {
    "name": "solc",
    "version": "0.4.24+commit.e67f0147.Emscripten.clang"
  },
  "schemaVersion": "2.0.1",
  "updatedAt": "2018-07-22T02:17:25.568Z"
}