{
  "contractName": "Pluvo",
  "abi": [
    {
      "constant": true,
      "inputs": [],
      "name": "numberOfRainees",
      "outputs": [
        {
          "name": "",
          "type": "uint256"
        }
      ],
      "payable": false,
      "stateMutability": "view",
      "type": "function"
    },
    {
      "constant": true,
      "inputs": [],
      "name": "name",
      "outputs": [
        {
          "name": "",
          "type": "string"
        }
      ],
      "payable": false,
      "stateMutability": "view",
      "type": "function"
    },
    {
      "constant": true,
      "inputs": [],
      "name": "totalSupply",
      "outputs": [
        {
          "name": "",
          "type": "uint256"
        }
      ],
      "payable": false,
      "stateMutability": "view",
      "type": "function"
    },
    {
      "constant": true,
      "inputs": [
        {
          "name": "",
          "type": "uint256"
        }
      ],
      "name": "rainfallPayouts",
      "outputs": [
        {
          "name": "amount",
          "type": "uint256"
        },
        {
          "name": "block",
          "type": "uint256"
        }
      ],
      "payable": false,
      "stateMutability": "view",
      "type": "function"
    },
    {
      "constant": true,
      "inputs": [
        {
          "name": "",
          "type": "address"
        }
      ],
      "name": "balances",
      "outputs": [
        {
          "name": "amount",
          "type": "uint256"
        },
        {
          "name": "lastEvaporationBlock",
          "type": "uint256"
        }
      ],
      "payable": false,
      "stateMutability": "view",
      "type": "function"
    },
    {
      "constant": true,
      "inputs": [],
      "name": "decimals",
      "outputs": [
        {
          "name": "",
          "type": "uint8"
        }
      ],
      "payable": false,
      "stateMutability": "view",
      "type": "function"
    },
    {
      "constant": true,
      "inputs": [
        {
          "name": "",
          "type": "address"
        },
        {
          "name": "",
          "type": "address"
        }
      ],
      "name": "allowed",
      "outputs": [
        {
          "name": "",
          "type": "uint256"
        }
      ],
      "payable": false,
      "stateMutability": "view",
      "type": "function"
    },
    {
      "constant": true,
      "inputs": [],
      "name": "evaporationRate",
      "outputs": [
        {
          "name": "",
          "type": "uint256"
        }
      ],
      "payable": false,
      "stateMutability": "view",
      "type": "function"
    },
    {
      "constant": true,
      "inputs": [],
      "name": "symbol",
      "outputs": [
        {
          "name": "",
          "type": "string"
        }
      ],
      "payable": false,
      "stateMutability": "view",
      "type": "function"
    },
    {
      "constant": true,
      "inputs": [
        {
          "name": "",
          "type": "address"
        }
      ],
      "name": "rainees",
      "outputs": [
        {
          "name": "",
          "type": "uint256"
        }
      ],
      "payable": false,
      "stateMutability": "view",
      "type": "function"
    },
    {
      "constant": true,
      "inputs": [],
      "name": "maxSupply",
      "outputs": [
        {
          "name": "",
          "type": "uint256"
        }
      ],
      "payable": false,
      "stateMutability": "view",
      "type": "function"
    },
    {
      "constant": true,
      "inputs": [],
      "name": "blocksBetweenRainfalls",
      "outputs": [
        {
          "name": "",
          "type": "uint256"
        }
      ],
      "payable": false,
      "stateMutability": "view",
      "type": "function"
    },
    {
      "inputs": [],
      "payable": false,
      "stateMutability": "nonpayable",
      "type": "constructor"
    },
    {
      "anonymous": false,
      "inputs": [
        {
          "indexed": true,
          "name": "_from",
          "type": "address"
        },
        {
          "indexed": true,
          "name": "_to",
          "type": "address"
        },
        {
          "indexed": false,
          "name": "_value",
          "type": "uint256"
        }
      ],
      "name": "Transfer",
      "type": "event"
    },
    {
      "anonymous": false,
      "inputs": [
        {
          "indexed": true,
          "name": "_owner",
          "type": "address"
        },
        {
          "indexed": true,
          "name": "_spender",
          "type": "address"
        },
        {
          "indexed": false,
          "name": "_value",
          "type": "uint256"
        }
      ],
      "name": "Approval",
      "type": "event"
    },
    {
      "constant": false,
      "inputs": [
        {
          "name": "_to",
          "type": "address"
        },
        {
          "name": "_value",
          "type": "uint256"
        }
      ],
      "name": "transfer",
      "outputs": [
        {
          "name": "success",
          "type": "bool"
        }
      ],
      "payable": false,
      "stateMutability": "nonpayable",
      "type": "function"
    },
    {
      "constant": false,
      "inputs": [
        {
          "name": "_from",
          "type": "address"
        },
        {
          "name": "_to",
          "type": "address"
        },
        {
          "name": "_value",
          "type": "uint256"
        }
      ],
      "name": "transferFrom",
      "outputs": [
        {
          "name": "success",
          "type": "bool"
        }
      ],
      "payable": false,
      "stateMutability": "nonpayable",
      "type": "function"
    },
    {
      "constant": true,
      "inputs": [
        {
          "name": "_owner",
          "type": "address"
        }
      ],
      "name": "balanceOf",
      "outputs": [
        {
          "name": "balance",
          "type": "uint256"
        }
      ],
      "payable": false,
      "stateMutability": "view",
      "type": "function"
    },
    {
      "constant": false,
      "inputs": [
        {
          "name": "_spender",
          "type": "address"
        },
        {
          "name": "_value",
          "type": "uint256"
        }
      ],
      "name": "approve",
      "outputs": [
        {
          "name": "success",
          "type": "bool"
        }
      ],
      "payable": false,
      "stateMutability": "nonpayable",
      "type": "function"
    },
    {
      "constant": true,
      "inputs": [
        {
          "name": "_owner",
          "type": "address"
        },
        {
          "name": "_spender",
          "type": "address"
        }
      ],
      "name": "allowance",
      "outputs": [
        {
          "name": "remaining",
          "type": "uint256"
        }
      ],
      "payable": false,
      "stateMutability": "view",
      "type": "function"
    },
    {
      "constant": true,
      "inputs": [],
      "name": "currentRainfallIndex",
      "outputs": [
        {
          "name": "",
          "type": "uint256"
        }
      ],
      "payable": false,
      "stateMutability": "view",
      "type": "function"
    },
    {
      "constant": true,
      "inputs": [],
      "name": "rainfallPerBlock",
      "outputs": [
        {
          "name": "",
          "type": "uint256"
        }
      ],
      "payable": false,
      "stateMutability": "view",
      "type": "function"
    },
    {
      "constant": false,
      "inputs": [
        {
          "name": "newEvaporationRate",
          "type": "uint256"
        }
      ],
      "name": "setEvaporationRate",
      "outputs": [
        {
          "name": "success",
          "type": "bool"
        }
      ],
      "payable": false,
      "stateMutability": "nonpayable",
      "type": "function"
    },
    {
      "constant": false,
      "inputs": [
        {
          "name": "newFrequency",
          "type": "uint256"
        }
      ],
      "name": "setRainfallFrequency",
      "outputs": [
        {
          "name": "success",
          "type": "bool"
        }
      ],
      "payable": false,
      "stateMutability": "nonpayable",
      "type": "function"
    },
    {
      "constant": false,
      "inputs": [
        {
          "name": "_rainee",
          "type": "address"
        }
      ],
      "name": "registerAddress",
      "outputs": [
        {
          "name": "success",
          "type": "bool"
        }
      ],
      "payable": false,
      "stateMutability": "nonpayable",
      "type": "function"
    },
    {
      "constant": false,
      "inputs": [
        {
          "name": "_rainee",
          "type": "address"
        }
      ],
      "name": "unregisterAddress",
      "outputs": [
        {
          "name": "success",
          "type": "bool"
        }
      ],
      "payable": false,
      "stateMutability": "nonpayable",
      "type": "function"
    },
    {
      "constant": false,
      "inputs": [],
      "name": "collect",
      "outputs": [
        {
          "name": "fundsCollected",
          "type": "uint256"
        }
      ],
      "payable": false,
      "stateMutability": "nonpayable",
      "type": "function"
    },
    {
      "constant": false,
      "inputs": [],
      "name": "rain",
      "outputs": [
        {
          "name": "success",
          "type": "bool"
        }
      ],
      "payable": false,
      "stateMutability": "nonpayable",
      "type": "function"
    },
    {
      "constant": true,
      "inputs": [
        {
          "name": "_addr",
          "type": "address"
        }
      ],
      "name": "calculateEvaporation",
      "outputs": [
        {
          "name": "",
          "type": "uint256"
        }
      ],
      "payable": false,
      "stateMutability": "view",
      "type": "function"
    },
    {
      "constant": true,
      "inputs": [],
      "name": "blockNumber",
      "outputs": [
        {
          "name": "",
          "type": "uint256"
        }
      ],
      "payable": false,
      "stateMutability": "view",
      "type": "function"
    }
  ],
  "bytecode": "0x60806040523480156200001157600080fd5b50600080819055506509184e72a000600a819055506000600b819055506040805190810160405280600581526020017f506c75766f000000000000000000000000000000000000000000000000000000815250600390805190602001906200007b92919062000157565b50600c600460006101000a81548160ff021916908360ff1602179055506040805190810160405280600381526020017f504c56000000000000000000000000000000000000000000000000000000000081525060059080519060200190620000e592919062000157565b50615100600881905550600160098190555060076040805190810160405280600081526020014381525090806001815401808255809150509060018203906000526020600020906002020160009091929091909150600082015181600001556020820151816001015550505062000206565b828054600181600116156101000203166002900490600052602060002090601f016020900481019282601f106200019a57805160ff1916838001178555620001cb565b82800160010185558215620001cb579182015b82811115620001ca578251825591602001919060010190620001ad565b5b509050620001da9190620001de565b5090565b6200020391905b80821115620001ff576000816000905550600101620001e5565b5090565b90565b6118d380620002166000396000f30060806040526004361061015e576000357c0100000000000000000000000000000000000000000000000000000000900463ffffffff168062f7c5be1461016357806304a7aaff146101be57806306fdde03146101e9578063095ea7b31461027957806318160ddd146102de57806323b872dd1461030957806327901b211461038e57806327e235e3146103d65780632e6831dc14610434578063313ce5671461045f5780633e5354a71461049057806343def26e146104e757806348e18407146105165780634c8ce3be1461055b57806357e871e7146105865780635c658165146105b157806370a08231146106285780638779f3be1461067f57806389c551e2146106c457806395d89b41146106ef578063a8a540081461077f578063a9059cbb146107da578063c8206f791461083f578063d5abeb0114610896578063dd62ed3e146108c1578063e522538114610938578063fba0c6cf14610963575b600080fd5b34801561016f57600080fd5b506101a4600480360381019080803573ffffffffffffffffffffffffffffffffffffffff16906020019092919050505061098e565b604051808215151515815260200191505060405180910390f35b3480156101ca57600080fd5b506101d3610a40565b6040518082815260200191505060405180910390f35b3480156101f557600080fd5b506101fe610a46565b6040518080602001828103825283818151815260200191508051906020019080838360005b8381101561023e578082015181840152602081019050610223565b50505050905090810190601f16801561026b5780820380516001836020036101000a031916815260200191505b509250505060405180910390f35b34801561028557600080fd5b506102c4600480360381019080803573ffffffffffffffffffffffffffffffffffffffff16906020019092919080359060200190929190505050610ae4565b604051808215151515815260200191505060405180910390f35b3480156102ea57600080fd5b506102f3610bd6565b6040518082815260200191505060405180910390f35b34801561031557600080fd5b50610374600480360381019080803573ffffffffffffffffffffffffffffffffffffffff169060200190929190803573ffffffffffffffffffffffffffffffffffffffff16906020019092919080359060200190929190505050610bdc565b604051808215151515815260200191505060405180910390f35b34801561039a57600080fd5b506103b960048036038101908080359060200190929190505050610e94565b604051808381526020018281526020019250505060405180910390f35b3480156103e257600080fd5b50610417600480360381019080803573ffffffffffffffffffffffffffffffffffffffff169060200190929190505050610ec7565b604051808381526020018281526020019250505060405180910390f35b34801561044057600080fd5b50610449610eeb565b6040518082815260200191505060405180910390f35b34801561046b57600080fd5b50610474610ef8565b604051808260ff1660ff16815260200191505060405180910390f35b34801561049c57600080fd5b506104d1600480360381019080803573ffffffffffffffffffffffffffffffffffffffff169060200190929190505050610f0b565b6040518082815260200191505060405180910390f35b3480156104f357600080fd5b506104fc610fd3565b604051808215151515815260200191505060405180910390f35b34801561052257600080fd5b50610541600480360381019080803590602001909291905050506110ab565b604051808215151515815260200191505060405180910390f35b34801561056757600080fd5b506105706110bd565b6040518082815260200191505060405180910390f35b34801561059257600080fd5b5061059b6110db565b6040518082815260200191505060405180910390f35b3480156105bd57600080fd5b50610612600480360381019080803573ffffffffffffffffffffffffffffffffffffffff169060200190929190803573ffffffffffffffffffffffffffffffffffffffff1690602001909291905050506110e3565b6040518082815260200191505060405180910390f35b34801561063457600080fd5b50610669600480360381019080803573ffffffffffffffffffffffffffffffffffffffff169060200190929190505050611108565b6040518082815260200191505060405180910390f35b34801561068b57600080fd5b506106aa6004803603810190808035906020019092919050505061115e565b604051808215151515815260200191505060405180910390f35b3480156106d057600080fd5b506106d9611170565b6040518082815260200191505060405180910390f35b3480156106fb57600080fd5b50610704611176565b6040518080602001828103825283818151815260200191508051906020019080838360005b83811015610744578082015181840152602081019050610729565b50505050905090810190601f1680156107715780820380516001836020036101000a031916815260200191505b509250505060405180910390f35b34801561078b57600080fd5b506107c0600480360381019080803573ffffffffffffffffffffffffffffffffffffffff169060200190929190505050611214565b604051808215151515815260200191505060405180910390f35b3480156107e657600080fd5b50610825600480360381019080803573ffffffffffffffffffffffffffffffffffffffff169060200190929190803590602001909291905050506112d0565b604051808215151515815260200191505060405180910390f35b34801561084b57600080fd5b50610880600480360381019080803573ffffffffffffffffffffffffffffffffffffffff169060200190929190505050611444565b6040518082815260200191505060405180910390f35b3480156108a257600080fd5b506108ab61145c565b6040518082815260200191505060405180910390f35b3480156108cd57600080fd5b50610922600480360381019080803573ffffffffffffffffffffffffffffffffffffffff169060200190929190803573ffffffffffffffffffffffffffffffffffffffff169060200190929190505050611462565b6040518082815260200191505060405180910390f35b34801561094457600080fd5b5061094d6114e9565b6040518082815260200191505060405180910390f35b34801561096f57600080fd5b50610978611672565b6040518082815260200191505060405180910390f35b600080600660008473ffffffffffffffffffffffffffffffffffffffff1673ffffffffffffffffffffffffffffffffffffffff168152602001908152602001600020541115610a3657600660008373ffffffffffffffffffffffffffffffffffffffff1673ffffffffffffffffffffffffffffffffffffffff16815260200190815260200160002060009055600b600081548092919060019003919050555060019050610a3b565b600090505b919050565b600b5481565b60038054600181600116156101000203166002900480601f016020809104026020016040519081016040528092919081815260200182805460018160011615610100020316600290048015610adc5780601f10610ab157610100808354040283529160200191610adc565b820191906000526020600020905b815481529060010190602001808311610abf57829003601f168201915b505050505081565b600081600260003373ffffffffffffffffffffffffffffffffffffffff1673ffffffffffffffffffffffffffffffffffffffff16815260200190815260200160002060008573ffffffffffffffffffffffffffffffffffffffff1673ffffffffffffffffffffffffffffffffffffffff168152602001908152602001600020819055508273ffffffffffffffffffffffffffffffffffffffff163373ffffffffffffffffffffffffffffffffffffffff167f8c5be1e5ebec7d5bd14f71427d1e84f3dd0314c0f7b2291e5b200ac8c7c3b925846040518082815260200191505060405180910390a36001905092915050565b60005481565b600080600260008673ffffffffffffffffffffffffffffffffffffffff1673ffffffffffffffffffffffffffffffffffffffff16815260200190815260200160002060003373ffffffffffffffffffffffffffffffffffffffff1673ffffffffffffffffffffffffffffffffffffffff168152602001908152602001600020549050828110151515610c6d57600080fd5b610c7685611678565b82600160008773ffffffffffffffffffffffffffffffffffffffff1673ffffffffffffffffffffffffffffffffffffffff1681526020019081526020016000206000015410151515610cc757600080fd5b610cd084611678565b82600160008673ffffffffffffffffffffffffffffffffffffffff1673ffffffffffffffffffffffffffffffffffffffff1681526020019081526020016000206000016000828254019250508190555082600160008773ffffffffffffffffffffffffffffffffffffffff1673ffffffffffffffffffffffffffffffffffffffff168152602001908152602001600020600001600082825403925050819055507fffffffffffffffffffffffffffffffffffffffffffffffffffffffffffffffff811015610e235782600260008773ffffffffffffffffffffffffffffffffffffffff1673ffffffffffffffffffffffffffffffffffffffff16815260200190815260200160002060003373ffffffffffffffffffffffffffffffffffffffff1673ffffffffffffffffffffffffffffffffffffffff168152602001908152602001600020600082825403925050819055505b8373ffffffffffffffffffffffffffffffffffffffff168573ffffffffffffffffffffffffffffffffffffffff167fddf252ad1be2c89b69c2b068fc378daa952ba7f163c4a11628f55a4df523b3ef856040518082815260200191505060405180910390a360019150509392505050565b600781815481101515610ea357fe5b90600052602060002090600202016000915090508060000154908060010154905082565b60016020528060005260406000206000915090508060000154908060010154905082565b6000600780549050905090565b600460009054906101000a900460ff1681565b6000806000806000600160008773ffffffffffffffffffffffffffffffffffffffff1673ffffffffffffffffffffffffffffffffffffffff1681526020019081526020016000206001015443039350600160008773ffffffffffffffffffffffffffffffffffffffff1673ffffffffffffffffffffffffffffffffffffffff16815260200190815260200160002060000154925060085464e8d4a51000811515610fb157fe5b04915060089050610fc683838660018561180f565b8303945050505050919050565b60008060008060076001610fe5610eeb565b03815481101515610ff257fe5b90600052602060002090600202016001015492508243039150600954821015156110a0578161101f6110bd565b02905060076040805190810160405280600b548481151561103c57fe5b04815260200143815250908060018154018082558091505090600182039060005260206000209060020201600090919290919091506000820151816000015560208201518160010155505050806000808282540192505081905550600193506110a5565b600093505b50505090565b60008160098190555060019050919050565b600064e8d4a51000600854600a54028115156110d557fe5b04905090565b600043905090565b6002602052816000526040600020602052806000526040600020600091509150505481565b600061111382610f0b565b600160008473ffffffffffffffffffffffffffffffffffffffff1673ffffffffffffffffffffffffffffffffffffffff16815260200190815260200160002060000154039050919050565b60008160088190555060019050919050565b60085481565b60058054600181600116156101000203166002900480601f01602080910402602001604051908101604052809291908181526020018280546001816001161561010002031660029004801561120c5780601f106111e15761010080835404028352916020019161120c565b820191906000526020600020905b8154815290600101906020018083116111ef57829003601f168201915b505050505081565b600080600660008473ffffffffffffffffffffffffffffffffffffffff1673ffffffffffffffffffffffffffffffffffffffff1681526020019081526020016000205414156112c6576001611267610eeb565b01600660008473ffffffffffffffffffffffffffffffffffffffff1673ffffffffffffffffffffffffffffffffffffffff16815260200190815260200160002081905550600b60008154809291906001019190505550600190506112cb565b600090505b919050565b60006112db33611678565b81600160003373ffffffffffffffffffffffffffffffffffffffff1673ffffffffffffffffffffffffffffffffffffffff168152602001908152602001600020600001541015151561132c57600080fd5b61133583611678565b81600160003373ffffffffffffffffffffffffffffffffffffffff1673ffffffffffffffffffffffffffffffffffffffff1681526020019081526020016000206000016000828254039250508190555081600160008573ffffffffffffffffffffffffffffffffffffffff1673ffffffffffffffffffffffffffffffffffffffff168152602001908152602001600020600001600082825401925050819055508273ffffffffffffffffffffffffffffffffffffffff163373ffffffffffffffffffffffffffffffffffffffff167fddf252ad1be2c89b69c2b068fc378daa952ba7f163c4a11628f55a4df523b3ef846040518082815260200191505060405180910390a36001905092915050565b60066020528060005260406000206000915090505481565b600a5481565b6000600260008473ffffffffffffffffffffffffffffffffffffffff1673ffffffffffffffffffffffffffffffffffffffff16815260200190815260200160002060008373ffffffffffffffffffffffffffffffffffffffff1673ffffffffffffffffffffffffffffffffffffffff16815260200190815260200160002054905092915050565b600080600080600080600660003373ffffffffffffffffffffffffffffffffffffffff1673ffffffffffffffffffffffffffffffffffffffff1681526020019081526020016000205411151561153e57600080fd5b600660003373ffffffffffffffffffffffffffffffffffffffff1673ffffffffffffffffffffffffffffffffffffffff168152602001908152602001600020549350611588610eeb565b925061159333611678565b6001840390505b828110156115d4576007818154811015156115b157fe5b90600052602060002090600202016000015482019150808060010191505061159a565b81600160003373ffffffffffffffffffffffffffffffffffffffff1673ffffffffffffffffffffffffffffffffffffffff1681526020019081526020016000206000016000828254019250508190555082600660003373ffffffffffffffffffffffffffffffffffffffff1673ffffffffffffffffffffffffffffffffffffffff168152602001908152602001600020819055508194505050505090565b60095481565b600080600160008473ffffffffffffffffffffffffffffffffffffffff1673ffffffffffffffffffffffffffffffffffffffff1681526020019081526020016000206000015414156117105743600160008473ffffffffffffffffffffffffffffffffffffffff1673ffffffffffffffffffffffffffffffffffffffff1681526020019081526020016000206001018190555061180b565b6000600160008473ffffffffffffffffffffffffffffffffffffffff1673ffffffffffffffffffffffffffffffffffffffff1681526020019081526020016000206001015411151561175e57fe5b61176782610f0b565b9050600081111561180a5780600160008473ffffffffffffffffffffffffffffffffffffffff1673ffffffffffffffffffffffffffffffffffffffff1681526020019081526020016000206000016000828254039250508190555043600160008473ffffffffffffffffffffffffffffffffffffffff1673ffffffffffffffffffffffffffffffffffffffff168152602001908152602001600020600101819055505b5b5050565b600080600080600080600094506001935060019250600091505b8682101561189657818a0a83858d0281151561184157fe5b0481151561184b57fe5b0490508780156118675750600160028381151561186457fe5b06145b1561187657808503945061187c565b80850194505b818903840293506001820183029250816001019150611829565b8495505050505050959450505050505600a165627a7a7230582079a2999f0c9e2c6afda4be52088d15a27582ca272b8186cceecf0d1d21a458b50029",
  "source": "pragma solidity ^0.4.24;\n\n// Abstract contract for the full ERC 20 Token standard\ncontract EIP20Interface {\n    /* This is a slight change to the ERC20 base standard.\n    function totalSupply() constant returns (uint256 supply);\n    is replaced with:\n    uint256 public totalSupply;\n    This automatically creates a getter function for the totalSupply.\n    This is moved to the base contract since public getter functions are not\n    currently recognised as an implementation of the matching abstract\n    function by the compiler.\n    */\n    /// total amount of tokens\n    uint256 public totalSupply;\n\n    /// @param _owner The address from which the balance will be retrieved\n    /// @return The balance\n    function balanceOf(address _owner) public view returns (uint256 balance);\n\n    /// @notice send `_value` token to `_to` from `msg.sender`\n    /// @param _to The address of the recipient\n    /// @param _value The amount of token to be transferred\n    /// @return Whether the transfer was successful or not\n    function transfer(address _to, uint256 _value) public returns (bool success);\n\n    /// @notice send `_value` token to `_to` from `_from` on the condition it is approved by `_from`\n    /// @param _from The address of the sender\n    /// @param _to The address of the recipient\n    /// @param _value The amount of token to be transferred\n    /// @return Whether the transfer was successful or not\n    function transferFrom(address _from, address _to, uint256 _value) public returns (bool success);\n\n    /// @notice `msg.sender` approves `_spender` to spend `_value` tokens\n    /// @param _spender The address of the account able to transfer the tokens\n    /// @param _value The amount of tokens to be approved for transfer\n    /// @return Whether the approval was successful or not\n    function approve(address _spender, uint256 _value) public returns (bool success);\n\n    /// @param _owner The address of the account owning tokens\n    /// @param _spender The address of the account able to transfer the tokens\n    /// @return Amount of remaining tokens allowed to spent\n    function allowance(address _owner, address _spender) public view returns (uint256 remaining);\n\n    // solhint-disable-next-line no-simple-event-func-name\n    event Transfer(address indexed _from, address indexed _to, uint256 _value);\n    event Approval(address indexed _owner, address indexed _spender, uint256 _value);\n}\n\ncontract Pluvo is EIP20Interface {\n    \n    /*--------- CONSTANTS ---------*/\n    \n    uint256 constant private MAX_UINT256 = 2**256 - 1;\n    \n    /*--------- ERC20 Variables ---------*/\n    \n    struct Balance {\n        uint256 amount;\n        uint256 lastEvaporationBlock;\n    }\n    \n    mapping (address => Balance) public balances;\n    mapping (address => mapping (address => uint256)) public allowed;\n\n    // The following variables are optional in ERC20\n    string public name;\n    uint8 public decimals;\n    string public symbol;\n    \n    \n    /*--------- ERC20 Functions ---------*/\n    \n    /// @notice send `_value` token to `_to` from `msg.sender`\n    /// @notice first, the message sender's balance falls by amount evaporated since last transfer\n    /// @param _to The address of the recipient\n    /// @param _value The amount of token to be transferred\n    /// @return Whether the transfer was successful or not\n    function transfer(address _to, uint256 _value) public returns (bool success) {\n        // evaporate from the sender\n        evaporate(msg.sender);\n\n        // ensure enough funds are available to send\n        require(balances[msg.sender].amount >= _value);\n        \n        // evaporate from the recipient\n        evaporate(_to);\n        \n        // send funds\n        balances[msg.sender].amount -= _value;\n        balances[_to].amount += _value;\n        emit Transfer(msg.sender, _to, _value); //solhint-disable-line indent, no-unused-vars\n        return true;\n    }\n\n    /// @notice send `_value` token to `_to` from `_from` on the condition it is approved by `_from`\n    /// @notice first, the _from address balance falls by amount evaporated since last transfer\n    /// @param _from The address of the sender\n    /// @param _to The address of the recipient\n    /// @param _value The amount of token to be transferred\n    /// @return Whether the transfer was successful or not\n    function transferFrom(address _from, address _to, uint256 _value) public returns (bool success) {\n        // ensure the message sender is authorized to spend coins from the _from address\n        uint256 allowance = allowed[_from][msg.sender];\n        require(allowance >= _value);\n        \n        // evaporate from the _from address\n        evaporate(_from);\n\n        // ensure enough funds are available to send\n        require(balances[_from].amount >= _value);\n        \n        // evaporate from the recipient\n        evaporate(_to);\n        \n        // the _from address then pays the recipient\n        balances[_to].amount += _value;\n        balances[_from].amount -= _value;\n        if (allowance < MAX_UINT256) {\n            allowed[_from][msg.sender] -= _value;\n        }\n        emit Transfer(_from, _to, _value); //solhint-disable-line indent, no-unused-vars\n        return true;\n    }\n\n    /// @notice Displays the address's balance, after evaporation has been paid.\n    /// @notice This does not pay the evaporation, which would get paid at next transfer.\n    /// @param _owner The address from which the balance will be retrieved.\n    /// @return The balance as if evaporation been paid.\n    function balanceOf(address _owner) public view returns (uint256 balance) {\n        return balances[_owner].amount - calculateEvaporation(_owner);\n    }\n\n    /// @notice `msg.sender` approves `_spender` to spend `_value` tokens\n    /// @param _spender The address of the account able to transfer the tokens\n    /// @param _value The amount of tokens to be approved for transfer\n    /// @return Whether the approval was successful or not\n    function approve(address _spender, uint256 _value) public returns (bool success) {\n        allowed[msg.sender][_spender] = _value;\n        emit Approval(msg.sender, _spender, _value); //solhint-disable-line indent, no-unused-vars\n        return true;\n    }\n\n    /// @param _owner The address of the account owning tokens\n    /// @param _spender The address of the account able to transfer the tokens\n    /// @return Amount of remaining tokens allowed to spent\n    function allowance(address _owner, address _spender) public view returns (uint256 remaining) {\n        return allowed[_owner][_spender];\n    }\n    \n    \n    /*--------- Pluvo Variables ---------*/\n\n    // authorized recipients of rain, mapping from address to lastRainfall number\n    mapping (address => uint256) public rainees;\n    \n    struct Rain {\n        uint256 amount;\n        uint256 block;\n    }\n    \n    // stores payout amount and block number for each rainfall\n    Rain[] public rainfallPayouts;\n    \n    // integer number representing coins evaporated per trillion coins per block\n    uint256 public evaporationRate; \n    uint256 constant private EVAPORATION_DEMONINATOR = 1e12;\n\n    \n    /* number of blocks between rainfall payouts\n     * this state variable exists to lessen number of contract calls that happen\n     * when people collect their rain.\n     */\n    uint256 public blocksBetweenRainfalls;\n\n    // maximum supply ever, used for calculating rain amount\n    uint256 public maxSupply;\n    \n    // number of addresses registered as rainees\n    uint256 public numberOfRainees;\n    \n\n    /*--------- Pluvo functions ---------*/\n    \n    /// @notice Counts the number of past rainfalls and returns that value.\n    /// @return Number of past rainfalls.\n    function currentRainfallIndex() public view returns (uint256) {\n        return rainfallPayouts.length;\n    }\n    \n    /// @notice Determine the total amount of rain per block.\n    /// @return Total rainfall per block.\n    function rainfallPerBlock() public view returns (uint256) {\n        return maxSupply * evaporationRate / EVAPORATION_DEMONINATOR;\n    }\n    \n    /// @notice Set the evaporation rate, in coins per block per trillion coins.\n    /// @return True if evaporation rate was updated; false otherwise.\n    /// TODO: Enable authorization so only contract owner (or via proper governance) can update.\n    function setEvaporationRate(uint256 newEvaporationRate) public returns (bool success) {\n        evaporationRate = newEvaporationRate;\n        return true;\n    }\n    \n    /// @notice Set the rainfall frequency, in minimum number of blocks between rainfalls.\n    /// @return True if rainfall frequency was updated; false otherwise.\n    /// TODO: Enable authorization so only contract owner (or via proper governance) can update.\n    function setRainfallFrequency(uint256 newFrequency) public returns (bool success) {\n        blocksBetweenRainfalls = newFrequency;\n        return true;\n    }\n    \n    // TODO: Create API for authorization, so that not any message sender can activate this.\n    /// @notice Register an address as an available rainee.\n    /// @notice Note that this does not yet check for authorization.\n    /// @param _rainee The address to register\n    /// @return True if the address was registered, false if the address was already registered\n    function registerAddress(address _rainee) public returns (bool success) {\n        if (rainees[_rainee] == 0) {\n            rainees[_rainee] = currentRainfallIndex() + 1;\n            numberOfRainees++;\n            return true;\n        }\n        return false;\n    }\n    \n    // TODO: Create API for authorization, so that not any message sender can activate this.\n    /// @notice Unregister an address, making it no longer an available rainee.\n    /// @notice Note that this does not yet check for authorization.\n    /// @param _rainee The address to unregister\n    /// @return True if the address was unregistered, false if the address was already unregistered\n    function unregisterAddress(address _rainee) public returns (bool success) {\n        if (rainees[_rainee] > 0) {\n            delete rainees[_rainee];\n            numberOfRainees--;\n            return true;\n        }\n        return false;\n    }\n    \n    /// @notice Increase message sender's balance by amount of available rain.\n    /// @notice Requires that message sender is authorized.\n    /// @notice Collection first performs any evaporation.\n    /// @return Amount collected.\n    function collect() public returns (uint256 fundsCollected) {\n        // ensure message sender is authorized\n        require(rainees[msg.sender] > 0);\n        \n        uint256 lastRainfallOfSender = rainees[msg.sender];\n        uint256 currentRainfall = currentRainfallIndex();\n    \n        // evaporate from message sender\n        // if current balance is zero, this updates the address's \n        //lastEvaporationBlock to the current block number\n        evaporate(msg.sender);\n        \n        // calculate amount available to collect\n        uint256 value;\n        for (uint256 i = lastRainfallOfSender - 1; i < currentRainfall; i++)\n            value += rainfallPayouts[i].amount;\n        \n        // pay collection to recipient\n        balances[msg.sender].amount += value;\n        \n        // update recipient's last collection index\n        rainees[msg.sender] = currentRainfall;\n        \n        return value;\n    }\n    \n    /// @notice Store rainfall payout.\n    /// @return True if enough time had elapsed since last rainfall.\n    function rain() public returns (bool success) {\n        // note that rainfallPayouts[currentRainfallIndex() - 1] is guaranteed\n        // to return a value because the rainfallPayouts array was seeded with\n        // a Rain struct in the contract constructor\n        uint256 lastRainBlock = rainfallPayouts[currentRainfallIndex() - 1].block;\n        uint256 elapsedBlocks = block.number - lastRainBlock;\n        \n        // rain if enough time has elapsed\n        if (elapsedBlocks >= blocksBetweenRainfalls) {\n            // determine rainfall total\n            uint256 totalRain = rainfallPerBlock() * elapsedBlocks;\n            \n            // store per-person rainfall amount\n            rainfallPayouts.push(Rain(totalRain/numberOfRainees, block.number));\n            \n            // update total supply\n            totalSupply += totalRain;\n            \n            return true;\n        }\n        \n        return false;\n    }\n    \n    /// @notice Calculates evaporation amount for a given address, without evaporating.\n    /// @notice chain-weights the per-block evaporation rate so evaporation will not be > 100%\n    /// @param _addr address from which to calcuate evaporation\n    function calculateEvaporation(address _addr) public view returns (uint256) {\n        uint256 elapsedBlocks = block.number - balances[_addr].lastEvaporationBlock;\n        //return balances[_addr].amount * (1 - (1 - evaporationRate / EVAPORATION_DEMONINATOR)**elapsedBlocks);\n        uint256 k = balances[_addr].amount;\n        uint256 q = EVAPORATION_DEMONINATOR / evaporationRate;\n        uint256 precision = 8; // higher precision costs more gas\n        return k - fractionalExponentiation(k, q, elapsedBlocks, true, precision);\n    }\n    \n    /// @notice Evaporate coins for a given address.\n    /// @param _addr address from which to perform evaporation\n    function evaporate(address _addr) private {\n        // for a zero balance, just update the lastEvaporationBlock\n        if (balances[_addr].amount == 0)\n            balances[_addr].lastEvaporationBlock = block.number;\n        \n        // for positive balances, evaporate coins and update lastEvaporationBlock\n        // but only do so if evaporation amount is positive\n        else {\n            assert(balances[_addr].lastEvaporationBlock > 0); // must be true for positive balances\n            uint256 evaporation = calculateEvaporation(_addr);\n            if (evaporation > 0) {\n                balances[_addr].amount -= evaporation; // pay evaporation\n                balances[_addr].lastEvaporationBlock = block.number; // update to current block\n            }\n        }\n    }\n    \n    \n    /*--------- Contract Constructor ---------*/\n    \n    constructor () public {\n        totalSupply = 0; // initialize to 0; supply will grow due to rain\n        maxSupply = 10e12; // 12**24 would be better\n        numberOfRainees = 0;\n        name = \"Pluvo\";\n        decimals = 12;\n        symbol = \"PLV\";\n        evaporationRate = 12**4; // 4.266%/year evaporation @ 15 second block intervals\n        blocksBetweenRainfalls = 1; // 40320 would be 7 days @ 15 second block intervals\n        rainfallPayouts.push(Rain(0, block.number));\n    }\n    \n    \n    /*--------- Math Functions ---------*/\n    \n    /// @notice Computes `k * (1+1/q) ^ n`, with precision `p`, for b = false\n    /// @notice Computes `k * (1-1/q) ^ n`, with precision `p`, for b = true\n    /// @notice Small values of p get a close approimation\n    /// @param k coefficient\n    /// @param q divisor (e.g., for 1.02^n, q = 100)\n    /// @param n exponent\n    /// @param b negative toggle (e.g., b = true for 0.99^n, b = false for 1.01^n)\n    /// @param p precision parameter. (p ~ log(n) is usually enough). Higher p costs more gas\n    /// @return result of computation (k * (1  1/q) ^ n)\n    function fractionalExponentiation(uint k, uint q, uint n, bool b, uint p) private pure returns (uint) {\n        uint s = 0;\n        uint N = 1;\n        uint B = 1;\n        for (uint i = 0; i < p; ++i) {\n            uint256 update = k * N / B / (q**i);\n            if (b && i % 2 == 1)\n                s -= update;\n            else\n                s += update;\n            N = N * (n-i);\n            B = B * (i+1);\n        }\n        return s;\n    }\n    \n    // TODO: DELETE THIS FOR PRODUCTION\n    function blockNumber() public view returns (uint256){\n        return block.number;\n    }\n    \n}",
  "sourcePath": "/Users/theshepster/Google Drive/Harvard/Thesis/Pluvo/contracts/Pluvo.sol",
  "compiler": {
    "name": "solc",
    "version": "0.4.24+commit.e67f0147.Emscripten.clang"
  },
  "schemaVersion": "2.0.1",
  "updatedAt": "2018-07-03T01:39:33.711Z"
}