{
  "contractName": "Pluvo",
  "abi": [
    {
      "constant": true,
      "inputs": [],
      "name": "numberOfRainees",
      "outputs": [
        {
          "name": "",
          "type": "uint256"
        }
      ],
      "payable": false,
      "stateMutability": "view",
      "type": "function"
    },
    {
      "constant": true,
      "inputs": [],
      "name": "name",
      "outputs": [
        {
          "name": "",
          "type": "string"
        }
      ],
      "payable": false,
      "stateMutability": "view",
      "type": "function"
    },
    {
      "constant": true,
      "inputs": [],
      "name": "secondsBetweenRainfalls",
      "outputs": [
        {
          "name": "",
          "type": "uint256"
        }
      ],
      "payable": false,
      "stateMutability": "view",
      "type": "function"
    },
    {
      "constant": true,
      "inputs": [
        {
          "name": "",
          "type": "uint256"
        }
      ],
      "name": "rainfallPayouts",
      "outputs": [
        {
          "name": "amount",
          "type": "uint256"
        },
        {
          "name": "rainTime",
          "type": "uint256"
        }
      ],
      "payable": false,
      "stateMutability": "view",
      "type": "function"
    },
    {
      "constant": true,
      "inputs": [
        {
          "name": "",
          "type": "address"
        }
      ],
      "name": "balances",
      "outputs": [
        {
          "name": "amount",
          "type": "uint256"
        },
        {
          "name": "lastEvaporationTime",
          "type": "uint256"
        }
      ],
      "payable": false,
      "stateMutability": "view",
      "type": "function"
    },
    {
      "constant": true,
      "inputs": [],
      "name": "registrar",
      "outputs": [
        {
          "name": "",
          "type": "address"
        }
      ],
      "payable": false,
      "stateMutability": "view",
      "type": "function"
    },
    {
      "constant": true,
      "inputs": [],
      "name": "decimals",
      "outputs": [
        {
          "name": "",
          "type": "uint8"
        }
      ],
      "payable": false,
      "stateMutability": "view",
      "type": "function"
    },
    {
      "constant": true,
      "inputs": [],
      "name": "parameterSetter",
      "outputs": [
        {
          "name": "",
          "type": "address"
        }
      ],
      "payable": false,
      "stateMutability": "view",
      "type": "function"
    },
    {
      "constant": true,
      "inputs": [
        {
          "name": "",
          "type": "address"
        },
        {
          "name": "",
          "type": "address"
        }
      ],
      "name": "allowed",
      "outputs": [
        {
          "name": "",
          "type": "uint256"
        }
      ],
      "payable": false,
      "stateMutability": "view",
      "type": "function"
    },
    {
      "constant": true,
      "inputs": [],
      "name": "evaporationRate",
      "outputs": [
        {
          "name": "",
          "type": "uint256"
        }
      ],
      "payable": false,
      "stateMutability": "view",
      "type": "function"
    },
    {
      "constant": true,
      "inputs": [],
      "name": "symbol",
      "outputs": [
        {
          "name": "",
          "type": "string"
        }
      ],
      "payable": false,
      "stateMutability": "view",
      "type": "function"
    },
    {
      "constant": true,
      "inputs": [
        {
          "name": "",
          "type": "address"
        }
      ],
      "name": "rainees",
      "outputs": [
        {
          "name": "",
          "type": "uint256"
        }
      ],
      "payable": false,
      "stateMutability": "view",
      "type": "function"
    },
    {
      "constant": true,
      "inputs": [],
      "name": "maxSupply",
      "outputs": [
        {
          "name": "",
          "type": "uint256"
        }
      ],
      "payable": false,
      "stateMutability": "view",
      "type": "function"
    },
    {
      "constant": true,
      "inputs": [],
      "name": "evaporationDenominator",
      "outputs": [
        {
          "name": "",
          "type": "uint256"
        }
      ],
      "payable": false,
      "stateMutability": "view",
      "type": "function"
    },
    {
      "inputs": [
        {
          "name": "_maxSupply",
          "type": "uint256"
        },
        {
          "name": "_evaporationRate",
          "type": "uint256"
        },
        {
          "name": "_evaporationDenominator",
          "type": "uint256"
        },
        {
          "name": "_secondsBetweenRainfalls",
          "type": "uint256"
        }
      ],
      "payable": false,
      "stateMutability": "nonpayable",
      "type": "constructor"
    },
    {
      "anonymous": false,
      "inputs": [
        {
          "indexed": true,
          "name": "recipient",
          "type": "address"
        },
        {
          "indexed": false,
          "name": "amount",
          "type": "uint256"
        }
      ],
      "name": "Collection",
      "type": "event"
    },
    {
      "anonymous": false,
      "inputs": [
        {
          "indexed": true,
          "name": "owner",
          "type": "address"
        },
        {
          "indexed": true,
          "name": "spender",
          "type": "address"
        },
        {
          "indexed": false,
          "name": "value",
          "type": "uint256"
        }
      ],
      "name": "Approval",
      "type": "event"
    },
    {
      "anonymous": false,
      "inputs": [
        {
          "indexed": true,
          "name": "from",
          "type": "address"
        },
        {
          "indexed": true,
          "name": "to",
          "type": "address"
        },
        {
          "indexed": false,
          "name": "value",
          "type": "uint256"
        }
      ],
      "name": "Transfer",
      "type": "event"
    },
    {
      "constant": true,
      "inputs": [],
      "name": "totalSupply",
      "outputs": [
        {
          "name": "",
          "type": "uint256"
        }
      ],
      "payable": false,
      "stateMutability": "view",
      "type": "function"
    },
    {
      "constant": false,
      "inputs": [
        {
          "name": "_to",
          "type": "address"
        },
        {
          "name": "_value",
          "type": "uint256"
        }
      ],
      "name": "transfer",
      "outputs": [
        {
          "name": "success",
          "type": "bool"
        }
      ],
      "payable": false,
      "stateMutability": "nonpayable",
      "type": "function"
    },
    {
      "constant": false,
      "inputs": [
        {
          "name": "_from",
          "type": "address"
        },
        {
          "name": "_to",
          "type": "address"
        },
        {
          "name": "_value",
          "type": "uint256"
        }
      ],
      "name": "transferFrom",
      "outputs": [
        {
          "name": "success",
          "type": "bool"
        }
      ],
      "payable": false,
      "stateMutability": "nonpayable",
      "type": "function"
    },
    {
      "constant": true,
      "inputs": [
        {
          "name": "_owner",
          "type": "address"
        }
      ],
      "name": "balanceOf",
      "outputs": [
        {
          "name": "balance",
          "type": "uint256"
        }
      ],
      "payable": false,
      "stateMutability": "view",
      "type": "function"
    },
    {
      "constant": false,
      "inputs": [
        {
          "name": "_spender",
          "type": "address"
        },
        {
          "name": "_value",
          "type": "uint256"
        }
      ],
      "name": "approve",
      "outputs": [
        {
          "name": "success",
          "type": "bool"
        }
      ],
      "payable": false,
      "stateMutability": "nonpayable",
      "type": "function"
    },
    {
      "constant": true,
      "inputs": [
        {
          "name": "_owner",
          "type": "address"
        },
        {
          "name": "_spender",
          "type": "address"
        }
      ],
      "name": "allowance",
      "outputs": [
        {
          "name": "remaining",
          "type": "uint256"
        }
      ],
      "payable": false,
      "stateMutability": "view",
      "type": "function"
    },
    {
      "constant": true,
      "inputs": [],
      "name": "currentRainfallIndex",
      "outputs": [
        {
          "name": "",
          "type": "uint256"
        }
      ],
      "payable": false,
      "stateMutability": "view",
      "type": "function"
    },
    {
      "constant": true,
      "inputs": [],
      "name": "lastRainTime",
      "outputs": [
        {
          "name": "",
          "type": "uint256"
        }
      ],
      "payable": false,
      "stateMutability": "view",
      "type": "function"
    },
    {
      "constant": true,
      "inputs": [],
      "name": "rainPerRainfallPerPerson",
      "outputs": [
        {
          "name": "",
          "type": "uint256"
        }
      ],
      "payable": false,
      "stateMutability": "view",
      "type": "function"
    },
    {
      "constant": false,
      "inputs": [
        {
          "name": "_evaporationRate",
          "type": "uint256"
        },
        {
          "name": "_evaporationDenominator",
          "type": "uint256"
        }
      ],
      "name": "setEvaporationRate",
      "outputs": [],
      "payable": false,
      "stateMutability": "nonpayable",
      "type": "function"
    },
    {
      "constant": false,
      "inputs": [
        {
          "name": "_secondsBetweenRainfalls",
          "type": "uint256"
        }
      ],
      "name": "setRainfallPeriod",
      "outputs": [],
      "payable": false,
      "stateMutability": "nonpayable",
      "type": "function"
    },
    {
      "constant": false,
      "inputs": [
        {
          "name": "_rainee",
          "type": "address"
        }
      ],
      "name": "registerAddress",
      "outputs": [
        {
          "name": "success",
          "type": "bool"
        }
      ],
      "payable": false,
      "stateMutability": "nonpayable",
      "type": "function"
    },
    {
      "constant": false,
      "inputs": [
        {
          "name": "_rainee",
          "type": "address"
        }
      ],
      "name": "unregisterAddress",
      "outputs": [
        {
          "name": "success",
          "type": "bool"
        }
      ],
      "payable": false,
      "stateMutability": "nonpayable",
      "type": "function"
    },
    {
      "constant": false,
      "inputs": [
        {
          "name": "_parameterSetter",
          "type": "address"
        }
      ],
      "name": "changeParameterSetter",
      "outputs": [],
      "payable": false,
      "stateMutability": "nonpayable",
      "type": "function"
    },
    {
      "constant": false,
      "inputs": [
        {
          "name": "_registrar",
          "type": "address"
        }
      ],
      "name": "changeRegistrar",
      "outputs": [],
      "payable": false,
      "stateMutability": "nonpayable",
      "type": "function"
    },
    {
      "constant": false,
      "inputs": [
        {
          "name": "maxCollections",
          "type": "uint256"
        }
      ],
      "name": "collectRainfalls",
      "outputs": [
        {
          "name": "fundsCollected",
          "type": "uint256"
        }
      ],
      "payable": false,
      "stateMutability": "nonpayable",
      "type": "function"
    },
    {
      "constant": false,
      "inputs": [],
      "name": "collect",
      "outputs": [
        {
          "name": "fundsCollected",
          "type": "uint256"
        }
      ],
      "payable": false,
      "stateMutability": "nonpayable",
      "type": "function"
    },
    {
      "constant": false,
      "inputs": [],
      "name": "rain",
      "outputs": [
        {
          "name": "rainfallsDue",
          "type": "uint256"
        }
      ],
      "payable": false,
      "stateMutability": "nonpayable",
      "type": "function"
    },
    {
      "constant": true,
      "inputs": [
        {
          "name": "_addr",
          "type": "address"
        }
      ],
      "name": "calculateEvaporation",
      "outputs": [
        {
          "name": "",
          "type": "uint256"
        }
      ],
      "payable": false,
      "stateMutability": "view",
      "type": "function"
    },
    {
      "constant": true,
      "inputs": [],
      "name": "blockTime",
      "outputs": [
        {
          "name": "",
          "type": "uint256"
        }
      ],
      "payable": false,
      "stateMutability": "view",
      "type": "function"
    }
  ],
  "bytecode": "0x60806040523480156200001157600080fd5b506040516080806200176c8339810160408181528251602080850151838601516060909601518486018552600586527f506c75766f0000000000000000000000000000000000000000000000000000008387019081528551808701909652600386527f504c560000000000000000000000000000000000000000000000000000000000938601939093528551939691959194909391929091601291620000bb9160009190620001cc565b508151620000d1906001906020850190620001cc565b506002805460ff191660ff92909216919091179055505082821015620000f657600080fd5b600082116200010457600080fd5b600084116200011257600080fd5b60006005819055600e819055600d94909455600a92909255600b55600c5560408051808201909152818152426020820190815260098054600181018255935290517f6e1540171b6c0c960b71a7020d9f60077f6af931a8bbf590da0223dacf75c7af60029390930292830155517f6e1540171b6c0c960b71a7020d9f60077f6af931a8bbf590da0223dacf75c7b0909101556006805433600160a060020a0319918216811790925560078054909116909117905562000271565b828054600181600116156101000203166002900490600052602060002090601f016020900481019282601f106200020f57805160ff19168380011785556200023f565b828001600101855582156200023f579182015b828111156200023f57825182559160200191906001019062000222565b506200024d92915062000251565b5090565b6200026e91905b808211156200024d576000815560010162000258565b90565b6114eb80620002816000396000f3006080604052600436106101aa5763ffffffff7c0100000000000000000000000000000000000000000000000000000000600035041662f7c5be81146101af57806304a7aaff146101e457806306fdde031461020b578063095ea7b3146102955780631651c58f146102b957806318160ddd146102ce57806323b872dd146102e357806327901b211461030d57806327e235e31461033e5780632b20e3971461035f5780632e6831dc14610390578063313ce567146103a5578063319f924b146103d05780633d49ee08146103e55780633e5354a71461040257806343def26e1461042357806348b15166146104385780634a1a63151461044d5780635c6581651461046557806366a362f21461048c57806368693698146104a157806370a08231146104b657806376b58810146104d757806389c551e2146104f857806395d89b411461050d578063a8a5400814610522578063a9059cbb14610543578063c8206f7914610567578063d5abeb0114610588578063dbaff60d1461059d578063dd62ed3e146105b5578063e127144e146105dc578063e5225381146105fd578063fa5980ee14610612575b600080fd5b3480156101bb57600080fd5b506101d0600160a060020a0360043516610627565b604080519115158252519081900360200190f35b3480156101f057600080fd5b506101f9610710565b60408051918252519081900360200190f35b34801561021757600080fd5b50610220610716565b6040805160208082528351818301528351919283929083019185019080838360005b8381101561025a578181015183820152602001610242565b50505050905090810190601f1680156102875780820380516001836020036101000a031916815260200191505b509250505060405180910390f35b3480156102a157600080fd5b506101d0600160a060020a03600435166024356107a4565b3480156102c557600080fd5b506101f961080b565b3480156102da57600080fd5b506101f9610811565b3480156102ef57600080fd5b506101d0600160a060020a0360043581169060243516604435610817565b34801561031957600080fd5b506103256004356109af565b6040805192835260208301919091528051918290030190f35b34801561034a57600080fd5b50610325600160a060020a03600435166109db565b34801561036b57600080fd5b506103746109f4565b60408051600160a060020a039092168252519081900360200190f35b34801561039c57600080fd5b506101f9610a03565b3480156103b157600080fd5b506103ba610a09565b6040805160ff9092168252519081900360200190f35b3480156103dc57600080fd5b50610374610a12565b3480156103f157600080fd5b50610400600435602435610a21565b005b34801561040e57600080fd5b506101f9600160a060020a0360043516610aca565b34801561042f57600080fd5b506101f9610af4565b34801561044457600080fd5b506101f9610ba2565b34801561045957600080fd5b506101f9600435610ba6565b34801561047157600080fd5b506101f9600160a060020a0360043581169060243516610d48565b34801561049857600080fd5b506101f9610d65565b3480156104ad57600080fd5b506101f9610d9f565b3480156104c257600080fd5b506101f9600160a060020a0360043516610dd1565b3480156104e357600080fd5b50610400600160a060020a0360043516610e04565b34801561050457600080fd5b506101f9610eae565b34801561051957600080fd5b50610220610eb4565b34801561052e57600080fd5b506101d0600160a060020a0360043516610f0e565b34801561054f57600080fd5b506101d0600160a060020a0360043516602435610fe8565b34801561057357600080fd5b506101f9600160a060020a03600435166110c8565b34801561059457600080fd5b506101f96110da565b3480156105a957600080fd5b506104006004356110e0565b3480156105c157600080fd5b506101f9600160a060020a0360043581169060243516611169565b3480156105e857600080fd5b50610400600160a060020a0360043516611194565b34801561060957600080fd5b506101f961123e565b34801561061e57600080fd5b506101f961124b565b600754600090600160a060020a03163381146106a457604080517f08c379a000000000000000000000000000000000000000000000000000000000815260206004820152601460248201527f53656e64657220756e617574686f72697a65642e000000000000000000000000604482015290519081900360640190fd5b600160a060020a0383166000908152600860205260408120541115610705576106cb610af4565b50600160a060020a038316600090815260086020526040812055600e546106f990600163ffffffff61125116565b600e556001915061070a565b600091505b50919050565b600e5481565b6000805460408051602060026001851615610100026000190190941693909304601f8101849004840282018401909252818152929183018282801561079c5780601f106107715761010080835404028352916020019161079c565b820191906000526020600020905b81548152906001019060200180831161077f57829003601f168201915b505050505081565b336000818152600460209081526040808320600160a060020a038716808552908352818420869055815186815291519394909390927f8c5be1e5ebec7d5bd14f71427d1e84f3dd0314c0f7b2291e5b200ac8c7c3b925928290030190a35060015b92915050565b600c5481565b60055490565b600160a060020a03831660009081526004602090815260408083203384529091528120548281101561084857600080fd5b61085185611263565b600160a060020a03851660009081526003602052604090205483111561087657600080fd5b61087f84611263565b600160a060020a0385166000908152600360205260409020546108a8908463ffffffff61125116565b600160a060020a0380871660009081526003602052604080822093909355908616815220546108dd908463ffffffff61136316565b600160a060020a03851660009081526003602052604090205560001981101561095957600160a060020a0385166000908152600460209081526040808320338452909152902054610934908463ffffffff61125116565b600160a060020a03861660009081526004602090815260408083203384529091529020555b83600160a060020a031685600160a060020a03167fddf252ad1be2c89b69c2b068fc378daa952ba7f163c4a11628f55a4df523b3ef856040518082815260200191505060405180910390a3506001949350505050565b60098054829081106109bd57fe5b60009182526020909120600290910201805460019091015490915082565b6003602052600090815260409020805460019091015482565b600754600160a060020a031681565b60095490565b60025460ff1681565b600654600160a060020a031681565b600654600160a060020a0316338114610a9b57604080517f08c379a000000000000000000000000000000000000000000000000000000000815260206004820152601460248201527f53656e64657220756e617574686f72697a65642e000000000000000000000000604482015290519081900360640190fd5b82821015610aa857600080fd5b60008211610ab557600080fd5b610abd610af4565b5050600a91909155600b55565b600160a060020a038116600090815260036020526040812080546001909101546108059190611370565b6000806000600e541115610b9e57610b2c600c54610b20610b13610d9f565b429063ffffffff61125116565b9063ffffffff61140916565b9150600190505b818111610b9e5760096040805190810160405280610b4f610d65565b8152602001610b6e610b5f610d9f565b600c549063ffffffff61136316565b90528154600181810184556000938452602093849020835160029093020191825592909101519082015501610b33565b5090565b4290565b336000908152600860205260408120548190819081908190819081908110610bcd57600080fd5b610bd5610af4565b50336000908152600860205260409020549550610bf0610a03565b9450858511610bfe57600080fd5b87610c0f868863ffffffff61125116565b1115610c1f578786019350610c23565b8493505b8592505b83831015610caa576009805484908110610c3d57fe5b9060005260206000209060020201600001549150600983815481101515610c6057fe5b9060005260206000209060020201600101549050610c9d610c818383611370565b610c91898563ffffffff61136316565b9063ffffffff61125116565b9650600190920191610c27565b610cb333611263565b33600090815260036020526040902054610cd3908863ffffffff61136316565b336000908152600360209081526040808320939093556008905220849055600554610d04908863ffffffff61136316565b60055560408051888152905133917f1e2c07e4e028f3ae13812908ec8fcdc86ea3700f00579098aeffbec738a73ebd919081900360200190a2505050505050919050565b600460209081526000928352604080842090915290825290205481565b600080600e54111515610d7757600080fd5b610d9a600e54610b20600b54610b20600a54600d5461141e90919063ffffffff16565b905090565b60006009610db06001610c91610a03565b81548110610dba57fe5b906000526020600020906002020160010154905090565b6000610805610ddf83610aca565b600160a060020a0384166000908152600360205260409020549063ffffffff61125116565b600754600160a060020a0316338114610e7e57604080517f08c379a000000000000000000000000000000000000000000000000000000000815260206004820152601460248201527f53656e64657220756e617574686f72697a65642e000000000000000000000000604482015290519081900360640190fd5b506007805473ffffffffffffffffffffffffffffffffffffffff1916600160a060020a0392909216919091179055565b600a5481565b60018054604080516020600284861615610100026000190190941693909304601f8101849004840282018401909252818152929183018282801561079c5780601f106107715761010080835404028352916020019161079c565b600754600090600160a060020a0316338114610f8b57604080517f08c379a000000000000000000000000000000000000000000000000000000000815260206004820152601460248201527f53656e64657220756e617574686f72697a65642e000000000000000000000000604482015290519081900360640190fd5b600160a060020a038316600090815260086020526040902054151561070557610fb2610af4565b50610fbb610a03565b600160a060020a038416600090815260086020526040902055600e546106f990600163ffffffff61136316565b6000610ff333611263565b3360009081526003602052604090205482111561100f57600080fd5b61101883611263565b33600090815260036020526040902054611038908363ffffffff61125116565b3360009081526003602052604080822092909255600160a060020a0385168152205461106a908363ffffffff61136316565b600160a060020a0384166000818152600360209081526040918290209390935580518581529051919233927fddf252ad1be2c89b69c2b068fc378daa952ba7f163c4a11628f55a4df523b3ef9281900390910190a350600192915050565b60086020526000908152604090205481565b600d5481565b600654600160a060020a031633811461115a57604080517f08c379a000000000000000000000000000000000000000000000000000000000815260206004820152601460248201527f53656e64657220756e617574686f72697a65642e000000000000000000000000604482015290519081900360640190fd5b611162610af4565b5050600c55565b600160a060020a03918216600090815260046020908152604080832093909416825291909152205490565b600654600160a060020a031633811461120e57604080517f08c379a000000000000000000000000000000000000000000000000000000000815260206004820152601460248201527f53656e64657220756e617574686f72697a65642e000000000000000000000000604482015290519081900360640190fd5b506006805473ffffffffffffffffffffffffffffffffffffffff1916600160a060020a0392909216919091179055565b6000610d9a600019610ba6565b600b5481565b60008282111561125d57fe5b50900390565b600160a060020a03811660009081526003602052604081205415156112ab5761128a610d9f565b600160a060020a03831660009081526003602052604090206001015561135f565b600160a060020a038216600090815260036020526040812060010154116112ce57fe5b6112d782610aca565b9050600081111561135f57600160a060020a03821660009081526003602052604090205461130b908263ffffffff61125116565b600160a060020a03831660009081526003602052604090205561132c610d9f565b600160a060020a03831660009081526003602052604090206001015560055461135b908263ffffffff61125116565b6005555b5050565b8181018281101561080557fe5b6000808080804286111561138357600080fd5b600a54151561139557600094506113ff565b600c546113ac90610b20428963ffffffff61125116565b93506113c5600a54600b5461140990919063ffffffff16565b9250600891506113e96113dc888587600187611447565b889063ffffffff61125116565b9050868111156113fb578694506113ff565b8094505b5050505092915050565b6000818381151561141657fe5b049392505050565b600082151561142f57506000610805565b5081810281838281151561143f57fe5b041461080557fe5b60008060018082805b868210156114b057818a0a83858d0281151561146857fe5b0481151561147257fe5b0490508780156114855750600282066001145b15611494578085039450611499565b938401935b818903939093029260019091019182029190611450565b509299985050505050505050505600a165627a7a72305820ee5515e4fb166d0f943688a2b68199c8e46ea10eca42f30a642921a4b9f3c4db0029",
  "source": "pragma solidity ^0.4.24;\npragma experimental \"v0.5.0\";\n\nimport \"openzeppelin-solidity/contracts/token/ERC20/DetailedERC20.sol\";\nimport \"openzeppelin-solidity/contracts/math/SafeMath.sol\";\n\ncontract Pluvo is DetailedERC20(\"Pluvo\", \"PLV\", 18) {\n    using SafeMath for uint256;\n\n    /*--------- CONSTANTS ---------*/\n    \n    uint256 constant private MAX_UINT256 = 2**256 - 1;\n    \n    /*--------- ERC20 Variables ---------*/\n    \n    struct Balance {\n        uint256 amount;\n        uint256 lastEvaporationTime;\n    }\n    \n    mapping (address => Balance) public balances;\n    mapping (address => mapping (address => uint256)) public allowed;\n    \n    /// total amount of tokens\n    uint256 public totalSupply;\n\n    /*--------- Contract Constructor ---------*/\n    \n    constructor (\n        uint256 _maxSupply,\n        uint256 _evaporationRate,\n        uint256 _evaporationDenominator,\n        uint256 _secondsBetweenRainfalls\n    ) public {\n        require(_evaporationDenominator >= _evaporationRate);\n        require(_evaporationDenominator > 0);\n        require(_maxSupply > 0);\n        totalSupply = 0; // initialize to 0; supply will grow due to rain\n        numberOfRainees = 0;  // initialize to 0; no one has registered yet\n        maxSupply = _maxSupply;\n        evaporationRate = _evaporationRate;\n        evaporationDenominator = _evaporationDenominator;\n        secondsBetweenRainfalls = _secondsBetweenRainfalls;\n        rainfallPayouts.push(Rain(0, block.timestamp));\n        parameterSetter = msg.sender;\n        registrar = msg.sender;\n    }\n    \n    /*--------- Modifiers ---------*/\n    \n    /// @notice Restrict function access to given address\n    modifier onlyBy(address _account) {\n        require(msg.sender == _account, \"Sender unauthorized.\");\n        _;\n    }\n    \n    /*--------- ERC20 Functions ---------*/\n    \n    /// @notice Return the total supply\n    /// @return total supply\n    function totalSupply() public view returns (uint256) {\n        return totalSupply;\n    }\n\n    /// @notice send `_value` token to `_to` from `msg.sender`\n    /// @notice first, the message sender's balance falls by \n    ///         amount evaporated since last transfer\n    /// @param _to The address of the recipient\n    /// @param _value The amount of token to be transferred\n    /// @return Whether the transfer was successful or not\n    function transfer(address _to, uint256 _value) \n        public returns (bool success) {\n        // evaporate from the sender\n        evaporate(msg.sender);\n\n        // ensure enough funds are available to send\n        require(balances[msg.sender].amount >= _value);\n        \n        // evaporate from the recipient\n        evaporate(_to);\n        \n        // send funds\n        balances[msg.sender].amount = balances[msg.sender].amount.sub(_value);\n        balances[_to].amount = balances[_to].amount.add(_value);\n        emit Transfer(msg.sender, _to, _value);\n        return true;\n    }\n\n    /// @notice send `_value` token to `_to` from `_from` \n    ///         on the condition it is approved by `_from`\n    /// @notice first, the _from address balance falls\n    ///         by amount evaporated since last transfer\n    /// @param _from The address of the sender\n    /// @param _to The address of the recipient\n    /// @param _value The amount of token to be transferred\n    /// @return Whether the transfer was successful or not\n    function transferFrom(address _from, address _to, uint256 _value) \n        public returns (bool success) {\n        // ensure message sender is authorized to spend from the _from address\n        uint256 allowance = allowed[_from][msg.sender];\n        require(allowance >= _value);\n        \n        // evaporate from the _from address\n        evaporate(_from);\n\n        // ensure enough funds are available to send\n        require(balances[_from].amount >= _value);\n        \n        // evaporate from the recipient\n        evaporate(_to);\n        \n        // the _from address then pays the recipient\n        balances[_from].amount = balances[_from].amount.sub(_value);\n        balances[_to].amount = balances[_to].amount.add(_value);\n        if (allowance < MAX_UINT256) {\n            allowed[_from][msg.sender] =\n                allowed[_from][msg.sender].sub(_value);\n        }\n        emit Transfer(_from, _to, _value);\n        return true;\n    }\n\n    /// @notice Displays the address's balance, \n    ///         after evaporation has been paid.\n    /// @notice This does not pay the evaporation, \n    ///         which would get paid at next transfer.\n    /// @param _owner The address from which the balance will be retrieved.\n    /// @return The balance as if evaporation been paid.\n    function balanceOf(address _owner) public view returns (uint256 balance) {\n        return balances[_owner].amount.sub(calculateEvaporation(_owner));\n    }\n\n    /// @notice `msg.sender` approves `_spender` to spend `_value` tokens\n    /// @param _spender The address of the account able to transfer the tokens\n    /// @param _value The amount of tokens to be approved for transfer\n    /// @return Whether the approval was successful or not\n    function approve(address _spender, uint256 _value) \n        public returns (bool success) {\n        allowed[msg.sender][_spender] = _value;\n        emit Approval(msg.sender, _spender, _value);\n        return true;\n    }\n\n    /// @param _owner The address of the account owning tokens\n    /// @param _spender The address of the account able to transfer the tokens\n    /// @return Amount of remaining tokens allowed to spent\n    function allowance(address _owner, address _spender) \n        public view returns (uint256 remaining) {\n        return allowed[_owner][_spender];\n    }\n    \n    \n    /*--------- Pluvo Variables ---------*/\n    \n    // address of parameter setter, for functions that require authorization\n    address public parameterSetter;\n    \n    // registrar address, authorized to register and unregister addresses\n    address public registrar;\n    \n    // authorized recipients of rain, \n    // mapping from address to last rainfall collected\n    mapping (address => uint256) public rainees;\n    \n    // used to store the amount and time for each rainfall\n    struct Rain {\n        uint256 amount;\n        uint256 rainTime;\n    }\n    \n    // stores payout amount and time for each rainfall\n    Rain[] public rainfallPayouts;\n    \n    // evaporationRate coins per evaporationDenominator evaporate per rainfall\n    uint256 public evaporationRate; \n    uint256 public evaporationDenominator;\n    \n    // number of seconds between rainfall payouts\n    uint256 public secondsBetweenRainfalls;\n\n    // maximum supply ever, used for calculating rain amount\n    uint256 public maxSupply;\n    \n    // number of addresses registered as rainees\n    uint256 public numberOfRainees;\n    \n\n    /*--------- Pluvo events ---------*/\n\n    event Collection(address indexed recipient, uint256 amount);\n\n\n    /*--------- Pluvo functions ---------*/\n    \n    /// @notice Counts 1 more than the number of past rainfalls. This is \n    /// because the rainfallPayouts array is seeded with a (0, block.timestamp)\n    /// value in the constructor.\n    /// @notice That is, this returns the index of the rainfall that is about \n    /// to occur next. For example, a return value of 2 indicates that the \n    /// next rainfall will be the second rainfall ever.\n    /// @return Number of past rainfalls.\n    function currentRainfallIndex() public view returns (uint256) {\n        return rainfallPayouts.length;\n    }\n\n    /// @notice This is guaranteed to return a value because the \n    /// rainfallPayouts array was seeded with a Rain struct in the constructor\n    /// @notice Determine the last time when rain happened\n    /// @return Last time when rain happened\n    function lastRainTime() public view returns (uint256) {\n        return rainfallPayouts[currentRainfallIndex().sub(1)].rainTime;\n    }\n\n    /// @notice Determine the total amount of rainfall due to each recipient \n    /// in the next rainfall.\n    /// @return Total rainfall due in a rainfall to each registered address.\n    function rainPerRainfallPerPerson() public view returns (uint256) {\n        require(numberOfRainees > 0);\n        return \n            maxSupply\n            .mul(evaporationRate)\n            .div(evaporationDenominator)\n            .div(numberOfRainees);\n    }\n    \n    /// @notice Set the evaporation rate numerator and denominator.\n    /// @return True if evaporation rate was updated; false otherwise.\n    function setEvaporationRate(\n        uint256 _evaporationRate,\n        uint256 _evaporationDenominator\n    ) public onlyBy(parameterSetter) {\n        require(_evaporationDenominator >= _evaporationRate);\n        require(_evaporationDenominator > 0);\n        rain();\n        evaporationRate = _evaporationRate;\n        evaporationDenominator = _evaporationDenominator;\n    }\n    \n    /// @notice Set the rainfall period, in seconds between rainfalls.\n    /// @notice Will rain if a rain is due given the current \n    /// secondsBetweenRainfalls.\n    function setRainfallPeriod(uint256 _secondsBetweenRainfalls) \n        public onlyBy(parameterSetter) {\n        rain();\n        secondsBetweenRainfalls = _secondsBetweenRainfalls;\n    }\n    \n    /// @notice Register an address as an available rainee.\n    /// @notice This function causes a rainfall before registration, if enough \n    /// time has elapsed.\n    /// @notice Note that this does not yet check for authorization.\n    /// @param _rainee The address to register\n    /// @return True if the address was registered, false if the address was \n    /// already registered\n    function registerAddress(address _rainee) \n        public onlyBy(registrar) returns (bool success) {\n        if (rainees[_rainee] == 0) {\n            rain(); // rain first, if enough time has elapsed\n            rainees[_rainee] = currentRainfallIndex();\n            numberOfRainees = numberOfRainees.add(1);\n            return true;\n        }\n        return false;\n    }\n    \n    /// @notice Unregister an address, making it no longer an available rainee.\n    /// @notice This function causes a rainfall before unregistration,\n    /// if enough time has elapsed.\n    /// @notice Note that this does not yet check for authorization.\n    /// @param _rainee The address to unregister\n    /// @return True if the address was unregistered, \n    /// false if the address was already unregistered\n    function unregisterAddress(address _rainee) \n        public onlyBy(registrar) returns (bool success) {\n        if (rainees[_rainee] > 0) {\n            rain(); // rain first, if enough time has elapsed\n            delete rainees[_rainee];\n            numberOfRainees = numberOfRainees.sub(1);\n            return true;\n        }\n        return false;\n    }\n    \n    /// @notice Changes the parameterSetter\n    function changeParameterSetter(address _parameterSetter) \n        public onlyBy(parameterSetter) {\n        parameterSetter = _parameterSetter;\n    }\n\n    /// @notice Changes the registrar\n    function changeRegistrar(address _registrar) public onlyBy(registrar) {\n        registrar = _registrar;\n    }\n    \n    /// @notice Increase message sender's balance by amount of available rain.\n    /// @notice Requires that message sender is authorized.\n    /// @notice Collection first performs any evaporation.\n    /// @notice This function allows user to specify the maximum number of\n    /// rainfalls to collect, thereby saving gas if there are many rainfalls\n    /// to collect.\n    /// @param maxCollections maximum number of rainfalls to collect\n    /// @return Amount collected.\n    function collectRainfalls(uint256 maxCollections) \n        public returns (uint256 fundsCollected) {\n        // ensure message sender is authorized\n        require(rainees[msg.sender] > 0);\n\n        // rain, if necessary\n        rain(); // rain() only rains if enough time has elapsed\n        \n        // ensure there is rain to be collected by the user\n        uint256 currentRainfallOfSender = rainees[msg.sender];\n        uint256 currentRainfall = currentRainfallIndex();\n        require(currentRainfall > currentRainfallOfSender);\n\n        // determine upper limit of rainfalls to collect\n        uint256 upperLimit;\n        if (currentRainfall.sub(currentRainfallOfSender) > maxCollections)\n            upperLimit = currentRainfallOfSender + maxCollections;\n        else\n            upperLimit = currentRainfall;\n\n        // calculate amount available to collect\n        // subtract evaporation before collection\n        for (uint256 i = currentRainfallOfSender; i < upperLimit; i++) {\n            uint256 amt = rainfallPayouts[i].amount;\n            uint256 time = rainfallPayouts[i].rainTime;\n            fundsCollected = \n                fundsCollected.add(amt).sub(calculateEvaporation(amt, time));\n        }\n\n        // evaporate from message sender\n        // if current balance is zero, this updates the address's \n        // lastEvaporationTime to the current time\n        evaporate(msg.sender);\n        \n        // pay collection to recipient\n        balances[msg.sender].amount = \n            balances[msg.sender].amount.add(fundsCollected);\n        \n        // update recipient's last rainfall collection index\n        rainees[msg.sender] = upperLimit;\n\n        // update total supply\n        totalSupply = totalSupply.add(fundsCollected);\n\n        // emit event so web3.js can see what happened\n        emit Collection(msg.sender, fundsCollected);\n\n        // implied: return fundsCollected;\n    }\n\n    /// @notice Increase message sender's balance by amount of available rain.\n    /// @notice Requires that message sender is authorized.\n    /// @notice Collection first performs any evaporation.\n    /// @return Amount collected.\n    function collect() public returns (uint256 fundsCollected) {\n        return collectRainfalls(MAX_UINT256);\n    }\n\n    /// @notice Store rainfall payout(s) due since last rainfall.\n    /// @notice If multiple rainfalls should have occurred, store the rain \n    /// from each of them.\n    /// @return True if enough time had elapsed since last rainfall.\n    function rain() public returns (uint256 rainfallsDue) {\n        if (numberOfRainees > 0) {\n            rainfallsDue =\n                block.timestamp\n                .sub(lastRainTime())\n                .div(secondsBetweenRainfalls);\n    \n            // store per-person rainfall amount.\n            // note that lastRainTime() updates after each push\n            for (uint256 i = 1; i <= rainfallsDue; i++) {\n                rainfallPayouts.push(\n                    Rain(\n                        rainPerRainfallPerPerson(), \n                        secondsBetweenRainfalls.add(lastRainTime())\n                    )\n                );\n            }\n        }\n    }\n    \n    /// @notice Calculates evaporation amount for a given balance and time\n    /// without evaporating.\n    /// @notice chain-weights the per-rainfall evaporation rate so evaporation\n    /// will not be > 100%\n    /// @param balance amount of coins to evaporate\n    /// @param lastTime last time when evaporation occurred\n    function calculateEvaporation(\n        uint256 balance, \n        uint256 lastTime\n    ) private view returns (uint256) {\n        require(block.timestamp >= lastTime);\n        if (evaporationRate == 0)\n            return 0;\n        \n        uint256 elapsedEvaporations = \n            block.timestamp.sub(lastTime).div(secondsBetweenRainfalls);\n\n        uint256 q = evaporationDenominator.div(evaporationRate);\n        uint256 precision = 8; // higher precision costs more gas\n        uint256 maxEvaporation = \n            balance.sub( \n                fractionalExponentiation(\n                    balance, q, elapsedEvaporations, true, precision\n                )\n            );\n        if (maxEvaporation > balance)\n            return balance;\n        else\n            return maxEvaporation;\n    }\n\n    /// @notice Calculates evaporation amount for a given address,\n    /// without evaporating.\n    /// @notice chain-weights the per-rainfall evaporation rate\n    /// so evaporation will not be > 100%\n    /// @param _addr address from which to calcuate evaporation\n    function calculateEvaporation(address _addr) \n        public view returns (uint256) {\n        return calculateEvaporation(\n            balances[_addr].amount,\n            balances[_addr].lastEvaporationTime\n        );\n    }\n\n    \n    /// @notice Evaporate coins for a given address.\n    /// @notice Only evaporate in the same block as rain.\n    /// @param _addr address from which to perform evaporation\n    function evaporate(address _addr) private {\n        // for a zero balance, just update the lastEvaporationTime\n        if (balances[_addr].amount == 0)\n            balances[_addr].lastEvaporationTime = lastRainTime();\n        \n        // for positive balances, evaporate coins and update \n        // the lastEvaporationTime,\n        // but only do so if evaporation amount is positive\n        else {\n            // this assert must be true for positive balances\n            assert(balances[_addr].lastEvaporationTime > 0); \n            uint256 evaporation = calculateEvaporation(_addr);\n            if (evaporation > 0) {\n                balances[_addr].amount = \n                    balances[_addr].amount.sub(evaporation); // pay evaporation\n                balances[_addr].lastEvaporationTime = lastRainTime();\n                totalSupply = totalSupply.sub(evaporation);\n            }\n        }\n    }\n    \n    \n    /*--------- Math Functions ---------*/\n    \n    /// @notice Computes `k * (1+1/q) ^ n`, with precision `p`, for b = false\n    /// @notice Computes `k * (1-1/q) ^ n`, with precision `p`, for b = true\n    /// @notice Small values of p get a close approimation\n    /// @param k coefficient\n    /// @param q divisor (e.g., for 1.02^n, q = 100)\n    /// @param n exponent\n    /// @param b negative toggle (e.g., b = true for 0.99^n,\n    /// b = false for 1.01^n)\n    /// @param p precision parameter. (p ~ log(n) is usually enough). \n    /// Higher p costs more gas\n    /// @return result of computation (k * (1  1/q) ^ n)\n    function fractionalExponentiation(uint k, uint q, uint n, bool b, uint p) \n        private pure returns (uint) {\n        uint s = 0;\n        uint N = 1;\n        uint B = 1;\n        for (uint i = 0; i < p; ++i) {\n            uint256 update = k * N / B / (q**i);\n            if (b && i % 2 == 1)\n                s -= update;\n            else\n                s += update;\n            N = N * (n-i);\n            B = B * (i+1);\n        }\n        return s;\n    }\n    \n    // TODO: DELETE THIS FOR PRODUCTION\n    function blockTime() public view returns (uint256) {\n        return block.timestamp;\n    }\n}\n",
  "sourcePath": "/Users/theshepster/Google Drive/Harvard/Thesis/Pluvo/contracts/Pluvo.sol",
  "compiler": {
    "name": "solc",
    "version": "0.4.24+commit.e67f0147.Emscripten.clang"
  },
  "schemaVersion": "2.0.1",
  "updatedAt": "2018-08-05T12:07:16.958Z"
}